S00F000070726F6A6563742E737265631E
S3150000000020040020F5300000412F0000F1300000F0
S31500000010F1300000F1300000F1300000F130000056
S31500000020000000000000000000000000F1300000A9
S31500000030F130000000000000F1300000F130000057
S31500000040952B0000192B0000C5220000C5220000D8
S31500000050C120000005210000492100008D2100007B
S306000000600594
S315000000680348044B834202D0034B03B11847704739
S31500000078040000200400002000000000064B074989
S31500000088C91A891048BF0131491003D0044B0BB176
S3150000009801481847704700BF0400002004000020EC
S315000000A80000000010B5064C237843B9FFF7D8FFC7
S315000000B8044B13B10448AFF300800123237010BD2D
S315000000C83C0400200000000084A2000108B5054B8E
S315000000D81BB105490548AFF30080BDE80840FFF7A6
S315000000E8CDBF00BF000000004004002084A200012C
S315000000F80369C268934204D881688A1A1344581E51
S315000001087047981A013870472DE9F843044688461F
S315000001181646C5688768A7EB0509914509D9406859
S31500000128284403F084F8BFF35F8F3544E560BDE8E3
S31500000138F88340684A46284403F079F8ED1B3544AD
S315000001482A4608EB0901606803F071F8BFF35F8F70
S31500000158E560ECE72DE9F843064688461746C56884
S315000001684FF000091AE05B1B5A1EB3685C1B9442E9
S3150000017828BF1446BC4228BF3C4670682246414602
S31500000188284403F054F8A144A0443F1B2544B3680F
S31500000198AB420BD0BFF35F8FF5604FB133699D4219
S315000001A8E1D3B2685B1B1A44013ADEE70025F1E7A2
S315000001B84846BDE8F883000010B5154CA822002172
S315000001C8204603F02CF8032323616361114AA261D8
S315000001D8114BE3614FF4806323620023A3626362D9
S315000001E8E36222660D4A62661022A2662367E36608
S315000001F86367BFF35F8F06E0C3F10F0208498956AC
S31500000208034AD15401330F2BF6D9BFF35F8F10BDC4
S3150000021868080020503200006804002058040020B6
S31500000228FC330000F8B50F461646441C04EB44049C
S31500000238164B03EBC40400EB400003EBC003DD6A76
S31500000248012D0ED0022D1AD0F5B92046FFF750FF22
S31500000258864212D8324639462046FFF755FF3546BC
S315000002680BE02046FFF744FF3546864228BF054681
S315000002782A4639462046FFF747FF2846F8BD204656
S31500000288FFF768FF0546F8E70025F6E76808002047
S31500000298F8B504460D4616460A4B1B785BB2532B37
S315000002A80DD1EFF311874FF0200181F31188324603
S315000002B829462046FFF7B6FF87F31188F8BDFFF7F2
S315000002C87BFFEEE76808002010B504468268531CD9
S315000002D84068834205D820688154A360E3680133E7
S315000002E8E360A26863689A4200D010BD216820695D
S315000002F8FFF7CEFFA368984203D04FF0FF33E360C1
S31500000308F3E70023A360F0E72DE9F84F81460F468F
S3150000031815461E46DDF828A00B9A0B464FF0010835
S3150000032803E0B3FBF5F308F10108AB42F9D2B04597
S3150000033800D2B04612F0010B18D1BAF1000F15D051
S3150000034812F0020F02D0BEB1202400E02024BAF138
S31500000358000F0BD0C24509D90AF1FF3A2146484693
S31500000368FFF7B2FFD9F80C30002BF0DAD9F80C30C9
S31500000378002B25DB012404E03024E8E7013E05FBD9
S3150000038804F4012EFAD8B7FBF4F39D42F7D900E03E
S315000003981C46B7FBF4F304FB1377124AD1564846BA
S315000003A8FFF792FFD9F80C30002B03DBB4FBF5F30B
S315000003B8AC42EDD2BBF1000F02D0BAF1000F01D169
S315000003C8BDE8F88FBAF1000FFAD0C245F8D90AF19C
S315000003D8FF3A20214846FFF777FFD9F80C30002B63
S315000003E8F0DAEDE7103400002DE9F04782B0074651
S315000003F88846154699460A9EDDF82CA081EAE17CD6
S31500000408ACEBE17C012402E09CFBF5FC013465457C
S31500000418FADD4C4500D24C4636B1B8F1000F02DB86
S315000004281AF0040F00D0013E1AF0020F02D0B9F1FB
S31500000438000F03D01AF0010F00D1AEB9FB68002BEC
S315000004480FDBB8F1000F1CDB1AF0040F20D1FB6894
S31500000458002B06DB0AF00303022B1ED0FB68002BD9
S315000004682DDA02B0BDE8F087002EE7D0A642E5D91E
S31500000478013E20213846FFF727FFFB68002BF3DAF9
S31500000488DCE7C8F100082D213846FFF71DFFDEE737
S315000004982B213846FFF718FFD9E7B9F1000FDDD150
S315000004A8002EDBD0002ED9D0A642D7D9013E302166
S315000004B83846FFF709FFFB68002BF3DACEE7CDF8DD
S315000004C804A000964B462A4641463846FFF71CFFCD
S315000004D8C7E700002DE9F04399B006460C461546D5
S315000004E803AB139340231493002315931790169385
S315000004F8A2E00020012211E040F0010001340CE0E6
S3150000050840F00200013408E040F00400013404E041
S3150000051840F00800013400E000221AB394F90030D4
S31500000528233B0D2BF8D801A151F823F0190500003B
S315000005382105000021050000210500002105000015
S315000005482105000021050000210500001105000015
S315000005582105000001050000210500002105000015
S315000005680905000094F90030A3F13001C9B2092940
S3150000057807D8013402EB820203EB4203A3F13002EF
S31500000588F0E72E2B04D00027B84694F9003025E072
S3150000059804F1010C94F901302A2B07D102342B6897
S315000005A8191D29601F684FF00108EEE70027B846B5
S315000005B89CF90030A3F13001C9B209290AD80CF117
S315000005C8010C07EB870703EB4703A3F130074FF04E
S315000005D80108EDE76446D8E714F9013F6C2BFBD018
S315000005E8682BF9D0252B00F0818021DB782B1FDCC6
S315000005F8582B1DDB583B202B1AD8DFE803F040198F
S315000006081919191919191919191128191919191945
S315000006181919191919196A19194C1934191940008F
S315000006282B681A1D2A6093F9001013A8FFF74CFED1
S315000006380134169B002B5EDB14F9011B00295AD0E6
S3150000064825293FF456AF13A8FFF73EFEF1E72B68BE
S31500000658191D29601968019000923B460A2213A8C1
S31500000668FFF7C2FEE4E72B68191D29601968019097
S3150000067800923B460A2213A8FFF746FED8E72B68E6
S31500000688191D29601968019000923B46102213A88B
S31500000698FFF73AFECCE72B681A1D2A60D3F80090BC
S315000006A8B9F1000F0BD1DFF874904FF0000806E09F
S315000006B813A8FFF709FE013F169B002BB8DB19F9B3
S315000006C8011B0029B4D0B8F1000FF1D0002FEFD1EB
S315000006D8AEE72B681A1D2A601968002301930823C0
S315000006E80093102213A8FFF70FFEA1E7252113A8F0
S315000006F8FFF7EAFD9CE7169B002B05DD159A3AB92C
S31500000708169B159A13441693169819B0BDE8F083EC
S3150000071803A93046FFF7BCFDF2E700BF5C320000D4
S315000007280EB400B582B003AB53F8041B019301AABB
S31500000738FFF7D0FE02B05DF804EB03B07047000087
S3150000074808B500F0B5F9C0B900F0CCF90246D8B939
S3150000075800F01CF90246E8B900F032F90246F8B989
S3150000076800F05CF9024608BB00F078F9024618BBAF
S3150000077800F07EF8024628BB08BD02461449002050
S31500000788FFF7CEFF00BEDFE711490020FFF7C8FFDD
S3150000079800BEDDE70E490020FFF7C2FF00BEDBE71B
S315000007A80B490020FFF7BCFF00BED9E70849002027
S315000007B8FFF7B6FF00BED7E705490020FFF7B0FFF1
S315000007C800BED5E702490020FFF7AAFF00BED3E71F
S315000007D86432000008B517490020FFF7A1FFFFF7AC
S315000007E8AFFF1549154800F0F9FE48B1024614490D
S315000007F80020FFF795FF00BE02E0124B1B7853B9A5
S3150000080800F07CF802460028F7D00D490020FFF7D3
S3150000081887FF00BEF1E7094800F072FF28B10A4BCE
S315000008280A4A0B490020FFF77BFF064B00221A7085
S31500000838E6E700BF8432000028350000480A002099
S3150000084864320000180900209032000020340000AD
S31500000858BC320000022800D0704708B50249034898
S3150000086801F044F808BD00BF9035000030090020AB
S3150000087810B50749074801F01FF9044608B920468C
S3150000088810BD054B054A06490020FFF749FFF6E764
S3150000089860350000500A0020D832000040340000BD
S315000008A8BC3200000379023BDBB2012B02D9012BD3
S315000008B804D97047034A01211170F8E7014B012258
S315000008C81A70F6E71609002003781B021BB2427855
S315000008D81343C3F30C0213F4805F03D06FEAC242DA
S315000008E86FEAD24207EE902AF8EEE77A9FED020AFF
S315000008F827EE800A704700BF0000803D10B5002330
S31500000908194A137001221949194801F0D1F9E0B9B9
S31500000918154B1B78002BFBD00023134A13700222B9
S315000009281449134801F0BDF90446B0B90E4B1B78BB
S31500000938002BFBD00C4B00221A700E48FFF7C4FFA1
S315000009480D4B83ED000A204610BD04460B4B0C4A9E
S315000009580C490020FFF7E4FEF5E70B4B084A094966
S315000009680020FFF7DDFEEEE7160900200000002054
S31500000978500A002014090020100900200033000046
S315000009882C340000BC3200002833000010B507499B
S31500000998074801F045FC044608B9204610BD054B3A
S315000009A8054A06490020FFF7BBFEF6E7AC3400000F
S315000009B838090020503300005C340000BC320000C7
S315000009C810B5074801F072FC044608B9204610BD68
S315000009D8044B054A05490020FFF7A2FEF6E700BFCB
S315000009E838090020903200004C340000BC32000068
S315000009F808B5094A13780133DBB213701378DBB2F2
S31500000A08012B05D0022B06D1034B00221A7002E0F7
S31500000A18AA2000F095F808BD1709002010B5094B63
S31500000A2800221A700849094801F0FAFB044608B979
S31500000A38204610BD064B074A07490020FFF770FEFF
S31500000A48F6E700BF18090020C43400004809002052
S31500000A585033000078340000BC32000010B5074857
S31500000A6801F024FC044608B9204610BD044B054A8B
S31500000A7805490020FFF754FEF6E700BF48090020A5
S31500000A889032000068340000BC320000014B01229D
S31500000A981A70704718090020034B01221A70027851
S31500000AA8024B1A70704700BF2D0900202C09002040
S31500000AB810B50749074800F035FB044608B9204633
S31500000AC810BD054B054A06490020FFF729FEF6E743
S31500000AD8DC340000600900207C3300009C340000F0
S31500000AE8BC32000010B586B000238DF817300DF122
S31500000AF817010E4800F058FA40B901A90B4800F052
S31500000B08AAF8044650B9204606B010BD0446084B5C
S31500000B18084A09490020FFF703FEF4E7074B054A90
S31500000B2805490020FFF7FCFDEDE700BF600900203E
S31500000B38A433000084340000BC320000D033000027
S31500000B4810B582B0014601AB6A46064800F013F8B4
S31500000B580446019A0099044802F069FB204602B04F
S31500000B6810BD00BF600900201C09002008B5FFF76A
S31500000B7831FE002008BD10B48469646934F8111088
S31500000B8849B1C4686018615A1960043010600020C1
S31500000B985DF8044B70472220FAE710B582B0044688
S31500000BA80A46D0F89430BBB193E803000DF1080C5F
S31500000BB80CE9030092E8030083E80300D4F89020C8
S31500000BC818469047D4F8943023B102AA12E90300D4
S31500000BD883E8030002B010BD0B46EFE741B1436856
S31500000BE813B14368022B03D10423436001238360B6
S31500000BF87047024606E0002353674B69506F33F887
S31500000C0810303BB9536F01335367916908698342C2
S31500000C18F3D9F0E7704738B50A238360036C0133CC
S31500000C280364D0F88440A3685D680823C26800F1AD
S31500000C3840012068A84738BD436843B98368012B3B
S31500000C4802D001230B7004E000230B7001E0436817
S31500000C580B700020704738B505460C46FFF7ECFFC9
S31500000C68EB6D6360237813B9EB681B68E3606B6907
S31500000C782A699B1AA36038BDF0B583B005461E469F
S31500000C8800238377D0F884008368DC680DF10703B6
S31500000C980068A047074608BB0446134A944207D88B
S31500000CA8AA7F2AB90121084602F0D4F80134F4E7EC
S31500000CB895F8583033700D4B9C4212D095F8583041
S31500000CC8DBB2022B0AD095F85830DBB2032B05D0DD
S31500000CD895F8583085F859304FF4FA77384603B006
S31500000CE8F0BD1427FAE700BF3F420F0040420F004D
S31500000CF870B582B005460E4602238DF80730C368E4
S31500000D0803F10804D0F888201344436100212BE03E
S31500000D180DF10703042221462846FFF7ADFF0146D9
S31500000D2870BB9DF80730022B28D0D5F88830A86903
S31500000D38C2680A32A3EB420223889A421DD323448F
S31500000D48073323F00303B3F802C04BF6AD629445AC
S31500000D5819D1EA684069B3F800C0A21A20F81C2025
S31500000D681C4634F8043BEB656B69A34206D9002E92
S31500000D78CED1AB6EA342D8D100E02121AC662C615E
S31500000D88084602B070BD2121F8E7000070B5054697
S31500000D9800238377D0F88430986884681868A04759
S31500000DA8064690B9044604E00121084602F052F8C6
S31500000DB801340B4B9C4202D8AB7F002BF4D0094B75
S31500000DC89C420BD095F858300BB9304670BD95F853
S31500000DD8583085F859304FF4FA76F6E71426F4E7D2
S31500000DE83F420F0040420F000AB12120704708B564
S31500000DF8D0F888209209FFF7C9FF08BD70B50546E7
S31500000E080020A877D5F88400846864680068A0473D
S31500000E180646C8B904460E4B9C4207D8AB7F2BB989
S31500000E280121084602F016F80134F4E7094B9C4202
S31500000E380CD095F85830DBB2012B05D095F8583010
S31500000E4885F859304FF4FA76304670BD1426FBE71C
S31500000E583F420F0040420F002DE9F04182B00446A0
S31500000E680023C3601E4628E00DF10703D4F8882046
S31500000E7839462046FFF700FF034600284CD19DF867
S31500000E880720032A17D1002239462046FFF7ACFF70
S31500000E98034610E0D4F88820920939462046FFF721
S31500000EA875FF034607E0E76005E00022394620465D
S31500000EB8FFF79AFF03467BBB0136A2695168B14228
S31500000EC82AD9D2F80080D4F8885006FB05F508EB35
S31500000ED805070DF10703082239462046FFF7CCFE21
S31500000EE80346C8B99DF80720022ABDD0F9884BF6F3
S31500000EF8AD629142D9D1E1680029D4D058F80520CD
S31500000F080B689A42C6D9D4F8882092092046FFF77A
S31500000F183DFF0346E760CEE7E26842B9A1690A6881
S31500000F2888680244D4F88800121AE2601BB1184691
S31500000F3802B0BDE8F08123644BF6AD63A4F84630F1
S31500000F480A688B681A440823121A04F140012046DD
S31500000F58FFF754FF0346EAE738B5044683691A697A
S31500000F68013252000021586902F059F90023A3778B
S31500000F784FF6FF73E3652046FFF76EFF21280FD073
S31500000F8868B9002500232377637701212046FFF7F8
S31500000F98AFFE212803D010B925B90123A36038BDB7
S31500000FA80125EFE72120FAE738B5044600238360D8
S31500000FB883699A6892091968FFF7E8FE054628B119
S31500000FC829462046FFF70AFE284638BD2046FFF781
S31500000FD8C3FF0546F4E710B50446436EC36083694C
S31500000FE81A69013252000021586902F018F90021E5
S31500000FF82046FFF77DFE10BD38B50446406EA2694F
S31500001008536933F81130C518E567C35A0B3323F013
S315000010180303C4F880302369E06852691B1A22F872
S3150000102811302369D4F880201A44E368D4F888106C
S315000010380B449A4201D8002038BD2046FFF7CBFF63
S31500001048032363600123A360F6E7F8B54368032B1F
S3150000105823D004460E46D0F880501F2D00D92025EF
S3150000106804F11F072A46E16F384602F0E0F8A66049
S31500001078D4F8840083685E682B462269394600687E
S31500001088B04723692B442361E36F2B44E367D4F805
S3150000109880305B1BC4F88030F8BD0020FCE7F8B54B
S315000010A804460D469C4602234360016699420AD0CF
S315000010B80021A06903698B4206D3406930F8110004
S315000010C810B90131F5E71146E268D4F8886002EBF9
S315000010D8060EA7693868BB680344734500D0704696
S315000010E86266E060064466613B698B4215D3083048
S315000010F820618BB223676367022D08D02046FFF76D
S315000011087BFF68B906212046FFF79FFF08E0069B8C
S315000011186246204600F07EF802E02046FFF77BFD97
S31500001128F8BD000070B582B0044681610B6A1A6882
S31500001138C0F884208B684868B3FBF0F3C4F888309D
S315000011480023A4F84830A4F84A30E3642364A4F8DA
S3150000115844304BF6AD60A4F846004FF6FF75A4F888
S315000011685050A4F85200A4F85430A4F856008869E0
S31500001178C4F89000C969C4F89810C4F89430936804
S315000011881B68516810689847054610B1284602B092
S3150000119870BD0023A3602046FFF7DEFE0546212822
S315000011A807D045B3D4F884309A68526918689047CE
S315000011B8ECE7002100910B460A462046FFF76FFF31
S315000011C805460028EED1064604E00121084601F04E
S315000011D841FE01360C4B9E4202D8A368012BF4D17E
S315000011E80A4B9E4205D06368042BDAD14FF4FA7590
S315000011F8D8E71425D6E7E3681B68236400236360F1
S31500001208034B2360C2E700BF3F4B4C00404B4C00EA
S315000012184545565230B583B01446026902EB030CB5
S315000012280CF10B0C2CF0030C4569AC4515D8A0F84D
S315000012385010A0F84830C368D31AA0F84A300223E1
S315000012488360C464D0F88440A3685D68042300F111
S3150000125848012068A84703B030BD009323460A46D4
S315000012680221FFF71CFFF6E710B50446FFF7C1FC9D
S31500001278236F834209D001462046FFF7BDFE48B9D1
S3150000128806212046FFF7E1FE04E02369A36720460E
S31500001298FFF7C1FC10BD70B582B00378846884F886
S315000012A85830A368B3B194F85830DBB2012B14D088
S315000012B894F85830002B40F0BD800021616001236E
S315000012C8A3602046FFF78AFCA368012B00F0CB80B9
S315000012D802B070BD0123A377FAE7A368023B082B87
S315000012E800F2BF80DFE803F00551326B83BDBDBD58
S315000012F89100256904352561E66C3146B4F8480045
S3150000130803460322A26002400AD10322A260D4F84F
S315000013188400826856682A460068B0470146D0E7C6
S31500001328032804D920F003030422A260EFE704F19E
S315000013388C030021C4F88C1031461E46184601F06D
S3150000134876FF0323A36031460423E0E7B4F8482078
S3150000135822F003060323A36004F18C050023C4F8D6
S315000013688C30E16C02F003023144284601F05FFF3D
S31500001378226932442261D4F8840083685E680423B3
S3150000138829460068B04701469BE7B4F8483013F091
S31500001398030F10D02369043323610523A360D4F80F
S315000013A8840083685D680423226904F1500100689B
S315000013B8A847014685E722691A442261EDE7B4F891
S315000013C85020E265236904332361A3695B69B4F895
S315000013D84A1023F81210616821B90123A360236912
S315000013E8A3666EE72046FFF73FFF014669E7D4F894
S315000013F880302BB106212046FFF727FE014660E71D
S315000014082046FFF731FF01465BE7E368D4F88820FA
S315000014181344636100232377A36F23610B23A3601F
S31500001428D4F8843099688D689209616E1868A8475F
S31500001438014646E76368022B09D0002194F8583024
S3150000144884F85930042363600123A36039E7A3684D
S315000014580B2B01D10021F1E72046FFF7BCFD014621
S31500001468ECE700212DE7D4F89030002B3FF430AF9D
S3150000147869462046FFF7E0FBD4F8983001936946A1
S315000014882046FFF78AFB23E7C0B9114A92F83820AD
S31500001498D2B2012A14D10E4A92F83220D2B2012AC7
S315000014A810D10B4A92F82A20D2B2012A0CD1084A46
S315000014B892F84A20D2B2012A08D17047052070470F
S315000014C8052070470520704705207047052070479E
S315000014D800E00140034B93F8AA3013F0100FF9D13E
S315000014E8704700BF00E0014038B50446012001F00E
S315000014F8CFFDFFF7EFFF2378002B67D0042B1DD015
S3150000150800232278032A41D00020627F920342F406
S3150000151800423049A568C1F8A051E468C1F8A44161
S3150000152892B22D498A81C2B281F89220DBB281F843
S315000015380034012001F078FD002038BD94F8202001
S31500001548254B83F8022494F8212083F8032494F881
S31500001558222083F8042494F8232083F8052494F899
S31500001568282083F80A2494F8292083F80B2494F871
S315000015782A2083F80C24E27F02F0030242F080025C
S31500001588A37F9B0103F040031343BAE72569626909
S315000015982A4319D000221049C1F898506069C1F849
S315000015A88800207F42EA4000658B0A4AB2F800C2EA
S315000015B865F3080CA2F800C2227E81F89420228BDB
S315000015C8120A81F89520A0E70122E4E700231A46CB
S315000015D81846A5E70060004000E0014010B5044643
S315000015E808466160FFF780FF30B900F1A643A3F112
S315000015F8B313A3F52F43236010BD0000F8B50446C6
S315000016083E4B9B8913F4004F16D100252E462F46D4
S3150000161863681B78032B55D0BFF34F8F30BF374A0B
S3150000162892F8923023F0800382F89230938913F46B
S31500001638004F51D10020F8BD304B93F82600C0B2B8
S3150000164893F8A07007F0030793F8AA6006F001065E
S3150000165893F80034DB0919D1284B93F8923013F02C
S31500001668010F0DD1002001F013FD244A92F84030F5
S31500001678DD0992F8403003F07F0382F84030C7E76F
S31500001688FFF702FF0028EDD00520D4E7002001F07F
S31500001698FFFC1A4B93F80E2422F0010283F80E245D
S315000016A893F80624002283F8062493F8071483F88F
S315000016B8072493F8081483F8082493F8091483F880
S315000016C80924D2E70D4B93F8922042F0800283F862
S315000016D8922093F892309FE7FFF7FCFE074A82F8BC
S315000016E8A07082F8AA6092F840302B4382F8403006
S315000016F8002001F099FC00209DE700BF00E00140B2
S3150000170810B50446FFF7E6FE012001F0C1FC2046AD
S31500001718FFF774FF0446012001F086FC204610BD41
S31500001728EFF31081012383F31088074B1B6823B955
S31500001738064B0022DA704022DA70034A1368013336
S31500001748136081F310887047D00A0020000D084006
S31500001758EFF31083012282F31088094A12681AB13E
S3150000176807490A68013A0A60054A126822B9054A11
S315000017780021D1708021D17083F31088704700BF93
S31500001788D00A0020000D084010B411F4803F0ED096
S31500001798030A0C4A1B0153FA80F352F8234024F437
S315000017A8803442F8234021F4803442F82340030A67
S315000017B81B0153FA80F0034B43F820105DF8044BE5
S315000017C8704700BF00080840F8B50646002569E0DE
S315000017D8374B93F8BB240123A340DFB2134238D01A
S315000017E804F12003334A12F81330DB093ED00134E2
S315000017F8022C56D8736803EBC50291882E4A32F834
S3150000180814209142F3D153F8353003F0F853B3F16D
S31500001818807FDDD0B3F1106FDAD0254B93F8BB2467
S315000018280123A340DFB213422DD104F12003214A3C
S3150000183812F81330DB09DAD004F1200112F811305E
S3150000184823F0800302F811300121C82001F002FBC1
S31500001858CDE7012001F01CFC154A92F8BB343B4346
S3150000186882F8BB34012001F0DFFBB9E704F120015F
S3150000187812F8113043F0800302F811300121C82014
S3150000188801F0E8FAB3E7012001F002FC084A92F8F1
S31500001898BB3423EA070382F8BB34012001F0C4FBFA
S315000018A8C3E701353388AB4201D90024A0E7F8BD68
S315000018B800E00140003008404438000038B50546CD
S315000018C8FFF782FFFFF72CFF002409E06B6803EBA4
S315000018D8C40253F834109088FFF756FF0134A4B2B7
S315000018E82B88A342F2D8FFF733FF38BD08B5034B60
S315000018F803600846FFF7E2FF002008BD54524F5028
S31500001908002807DB00F01F02400901239340024A22
S3150000191842F82030704700BF00E100E00B4B00F1B1
S31500001928C00253F8221021F4803143F8221053F8EC
S315000019382230BFF35F8F00F01F0240090123934056
S315000019486030034A42F82030704700BF006000400C
S3150000195800E100E010B50446FFF7E0FF04F01F02BF
S31500001968640901239340024A42F8243010BD00BF9F
S3150000197800E100E010B582B004460A46836BBBB1AD
S3150000198893E803000DF1080C0CE90300E16B1960FC
S315000019981A71626B18469047A36B23B102AA12E923
S315000019A8030083E80300002384F82B3002B010BD3F
S315000019B86B46EBE7F8B504460D46036900221A7034
S315000019C8036940221A7023691A7812F0400FFAD078
S315000019D8C0221A7023685B6A1B79226943F0E00308
S315000019E8137423685B6ADB78226943F0E003537457
S315000019F823685B6A9B781B0103F07003226943F036
S31500001A080803937023685B6A1A78012A4AD004216E
S31500001A185B785B00DBB222690B43D37023685A6894
S31500001A28224B9A4240D0772223695A7123690022B1
S31500001A389A712369B322DA7195F911006B7B1B0140
S31500001A48DBB21B4E321882F800331A4F47F8204093
S31500001A58FFF780FF95F90F006B7B1B01DBB232188D
S31500001A6882F8003347F82040FFF774FF95F9100015
S31500001A786B7B1B01DBB2321882F8003347F8204033
S31500001A88FFF768FF95F90E006B7B1B01DBB2064476
S31500001A9886F8003347F82040FFF75CFF23699F224A
S31500001AA81A70F8BD0521B3E7F722BDE740420F00DB
S31500001AB800E100E0D40A0020F8B504460A7802F5E9
S31500001AC8800202F51F621202026101608A684260A2
S31500001AD80A7B0272CA6942630A6AC2630025856381
S31500001AE845618561C561056280F8295080F82A50EC
S31500001AF880F82B5080F82C50EFF3108C012282F3DB
S31500001B081088094E77680B78C3F109039A4027EACB
S31500001B180202726073688CF31088FFF74BFF034B61
S31500001B28E3602846F8BD00BF0040084043494952D3
S31500001B3810B5044679B90023E36194F8262084F8A1
S31500001B482820A269226284F82C3084F82A30236976
S31500001B58B322DA7110BD03690022DA710168FFF752
S31500001B6829FFE8E710B582B004463F4B1B6A01938C
S31500001B78019B03F00F230193019AC2F303220198F4
S31500001B8821690B7CDBB2A2EB1062934094F82C20FF
S31500001B9852B99B0800E0013B13B14A78D209FAD141
S31500001BA8002B5FD00023CB71002384F828302362F2
S31500001BB8A269E26194F8262084F8272084F82B305D
S31500001BC884F82D3084F82E3084F82F3084F830309D
S31500001BD823685A6A1378012B3ED0042153785B0098
S31500001BE8DBB20B4351790901C9B20B439179C9019B
S31500001BF8C9B220690B43C37021690B7943F01003FE
S31500001C080B7121690B7923F008030B7121690B7994
S31500001C1823F010030B712169D2790B7962F3C7138C
S31500001C280B712269537943F001035371236893F9C1
S31500001C380F00FFF765FE2269537A03F0F303537228
S31500001C482369BF22DA7194F82C303BB92369022242
S31500001C585A70002002B010BD0521BFE7002084F8A5
S31500001C682C00F7E70820F5E700E0014008B54161D8
S31500001C788261027A012A07D0003B18BF012380F847
S31500001C882930FFF76FFF08BD002280F8252042683B
S31500001C985200D2B21A4380F82420012280F8262066
S31500001CA8EAE708B580F82A300123FFF7DFFF08BD09
S31500001CB808B580F82A300023FFF7D8FF08BD0000D2
S31500001CC810B5044603685B6ADB79002B3AD194F8B1
S31500001CD829301BB194F82730012B37D0E3691BBB99
S31500001CE894F82A30002B36D0236893F90F3003F086
S31500001CF81F025B09012101FA02F220331B4840F852
S31500001D082320BFF34F8FBFF36F8F2269D37943F038
S31500001D188003D371236904225A702269537923F008
S31500001D280103537184F82C102269D37923F04003F8
S31500001D38D371C023C3B12269D27912F0400F13D0F0
S31500001D48013BF7E70521FFF715FEC0E794F83030A9
S31500001D58002BE9D0C2E72269537A03F0F7035372DE
S31500001D68236908225A70DFE710BD00BF00E100E0D2
S31500001D7838B504460269537AD8B2517A01F0E001BF
S31500001D88517203F0030213F0100306D02169497853
S31500001D9811F0400F21D0002100E000210A431ED196
S31500001DA823B123695A7812F0400F24D110F00803A2
S31500001DB806D194F82C20002A45D010F0040F3BD009
S31500001DC8E269A2BB94F82B208ABB94F8293063B346
S31500001DD802212369B322DA712BE00121DEE701250E
S31500001DE884F82B5029462046FFF7A2FE29462046AE
S31500001DF8FFF7C0FD20E0012284F82B2008225A7044
S31500001E0823685B6A19785A791201D2B29B79DB0189
S31500001E18DBB220690A43134343F00203C370226905
S31500001E28537943F00103537106E00321D1E723B93F
S31500001E3801212046FFF79EFD38BD00212046FFF709
S31500001E4877FE0121F5E710F0040FF5D023685B6AE9
S31500001E58DB79002BF0D004212046FFF78BFDEBE75A
S31500001E6810B4C369032B37D0022B4ED0012B38D1BF
S31500001E7890F82A30002B58D0036893F90F3003F0F6
S31500001E881F015B09012202FA01F120332B4C44F8A9
S31500001E982310BFF34F8FBFF36F8F0169CB7943F0E0
S31500001EA88003CB7101690B7943F010030B7101694B
S31500001EB80B7923F008030B7101690B7923F01003E2
S31500001EC80B7103690421597001694B7923F00103E9
S31500001ED84B7180F82C2004E00269137943F0400323
S31500001EE8137101694269036AC97CD154036A0133D3
S31500001EF80362C369013BC36123B90269137923F0FD
S31500001F08400313715DF8044B70470269137943F077
S31500001F18100313710269137943F0080313710269F8
S31500001F28137923F010031371DBE70269537A03F080
S31500001F38F7035372036908225A70D2E700E100E0FA
S31500001F4810B582B0044690F82D30002B2FD1836946
S31500001F58022B04D80269137943F040031371E3692D
S31500001F68012B0FD023685B6ADB79DBB92369DB7C3D
S31500001F78DBB28DF807309DF80730012384F82D3041
S31500001F8802B010BD2269137943F010031371226958
S31500001F98137943F0080313712269137923F01003A8
S31500001FA81371DFE705212046FFF7E4FCDEE7C36986
S31500001FB8002BE5D003685B6ADB791BB92046FFF77F
S31500001FC84FFFDDE70521FFF7D5FCF7E790F8263048
S31500001FD8032B0ED090F8242003699A7490F82830C1
S31500001FE8013380F8283090F82730013B80F82730F5
S31500001FF8704790F82830022BECD190F83030002B3F
S31500002008F6D0E7E710B5044690F827303BBB90F8C2
S31500002018293033BB03685B6ADB7923B190F82B3030
S315000020280BB9036AF3B9E36953B16169226A236993
S315000020388A5C9A74236A01332362E369013BE3618C
S31500002048E36973B92269D37923F08003D371C02277
S3150000205862B12369DB79DB0908D0013AF8E7FFF7B3
S31500002068B5FF10BD0521FFF785FCDCE7236893F96A
S3150000207810300F4AC03352F8231021F4803142F849
S31500002088231052F82330236893F91030002B08DB0D
S3150000209803F01F015B0901228A406033054941F8B4
S315000020A823202269D37943F04003D371D9E700BFCF
S315000020B80060004000E100E008B5EFF30383C3F3D6
S315000020C80803103B5BB20B4AC03352F8231021F4C5
S315000020D8803142F8231052F82330EFF30383C3F319
S315000020E80803103B5BB2044A52F82300FFF728FFA7
S315000020F808BD00BF00600040D40A002008B5EFF311
S315000021080383C3F30803103B5BB20B4AC03352F890
S31500002118231021F4803142F8231052F82330EFF3CC
S315000021280383C3F30803103B5BB2044A52F8230047
S31500002138FFF768FF08BD00BF00600040D40A002012
S3150000214808B5EFF30383C3F30803103B5BB20B4AEE
S3150000215852F82300FFF7B4FDEFF30383C3F3080334
S31500002168103B5BB2064AC03352F8231021F4803183
S3150000217842F8231052F8233008BD00BFD40A0020C5
S315000021880060004008B5EFF30383C3F30803103B70
S315000021985BB20B4A52F82300FFF7EAFDEFF303831D
S315000021A8C3F30803103B5BB2064AC03352F8231048
S315000021B821F4803142F8231052F8233008BD00BFBD
S315000021C8D40A0020006000400B4B00F1C00253F80F
S315000021D8221021F4803143F8221053F82230BFF33D
S315000021E85F8F00F01F024009012393406030034AC5
S315000021F842F82030704700BF0060004000E100E070
S3150000220810B50446FFF7E0FF04F01F026409012336
S315000022189340024A42F8243010BD00BF00E100E0B6
S3150000222830B591F9023003711D4AC03352F8234084
S31500002238002542F823508B688360CB68C36091F809
S3150000224800E080F805E002F80E500B791B01DBB2BE
S3150000225891F805C04FEACC1C5FFA8CFC43EA0C03E4
S3150000226891F803C04CEA030302F80E3090F90430E3
S31500002278C03342F8234090F90420AA420BDB4B787E
S315000022881B01DBB202F1604101F5614181F80033BF
S31500002298044B43F82200044B0360002030BD00BF06
S315000022A800600040D40A00205543490008B590F95B
S315000022B80400FFF7A5FF002008BD000030B583B075
S315000022C8EFF30384C4F30804103C64B2174B53F8C5
S315000022D824305A7916498A5C02F00302032A21D06F
S315000022E80A4604F1C00152F8210020F4803042F871
S315000022F8210052F82120BBB100259A682AB15979E4
S315000023080191DB680093684690474DB1084BC0348D
S3150000231853F8242022F4803243F8242053F824303A
S3150000232803B030BD0125E8E70025EEE7D40A002012
S31500002338006000400B4B00F1C00253F8221021F454
S31500002348803143F8221053F82230BFF35F8F00F034
S315000023581F024009012393406030034A42F82030A7
S31500002368704700BF0060004000E100E010B5044679
S31500002378FFF7E0FF04F01F02640901239340024AB5
S3150000238842F8243010BD00BF00E100E0054BB3F869
S31500002398843003F0810313B90B70002070470123C2
S315000023A80B70FAE700E07F4006207047062070476A
S315000023B80620704706207047062070470B46064AD7
S315000023C892E8030083E80300044A083392E803000E
S315000023D883E8030000207047B038000098380000F2
S315000023E800230360436893F91130002B0CDB03F0DC
S315000023F81F015B0901228A402033104941F8232036
S31500002408BFF34F8FBFF36F8F0D4B00221A764368C9
S3150000241893F9133093420CDB03F01F015B09012289
S315000024288A402033054941F82320BFF34F8FBFF375
S315000024386F8F0020024B1875704700BF00E100E05F
S3150000244800E07F40016482644364002070470620F0
S315000024587047062070470620704706207047000020
S3150000246830B482B014467AB9436893F9113003F050
S315000024781F055B090122AA4020332A4D45F823206F
S31500002488BFF34F8FBFF36F8F426B274B1A63A3F5CA
S31500002498F033E8221A704FEA510CC1F3470119705C
S315000024A8002161451FD2036B1A88204B1A800369E5
S315000024B801931D4BD3F8803013F4806F08D0019B2D
S315000024C85A1E0192002BF4D1142002B030BC70477A
S315000024D8036B02330363436B02334363836B013B32
S315000024E883630131DDE7114BD0221A7064B9436862
S315000024F893F9113003F01F015B0901228A4009494B
S3150000250841F823202046E0E7074BD3F8803013F440
S31500002518004F04D10CB1013CF6E71420D5E70020A2
S31500002528D3E700BF00E100E000E07F4000007E4006
S3150000253810B4002380F83C30354C226AC2F302718D
S31500002548C2F30262334B1B6803FA02F2CA40216ADD
S31500002558C1F302618B40CB40012184F816142E4941
S315000025688A4252D902F5742202F23F222B49A1FB74
S315000025780242920C03F5742303F23F23A1FB0313D3
S315000025889B0C02F5F0522649A1F8E42043F6B8510F
S3150000259803FB01F1234AA2FB01418908816040F649
S315000025A8D86103FB01F1A2FB01418908C16059000A
S315000025B8A2FB014189080161542103FB01F1A2FB39
S315000025C80141890841614FF4FA2103FB01F1A2FB9D
S315000025D801418908816144F2506103FB01F1A2FBC4
S315000025E8014189084162104903FB01F1A2FB01413F
S315000025F8890801620D4901FB03F3A2FB03239B082B
S31500002608C36100205DF8044B70474FF4FB70F9E78F
S3150000261800E00140000B0020FF083D0083DE1B435D
S3150000262800E07F40ABAAAAAA80DE0F00A0F703004D
S315000026382DE9F041044641600B785BB91A4B00223C
S315000026481A761A752046FFF773FF08B9174B2360E9
S31500002658BDE8F0810D464B680364CB6883640023AC
S315000026684364DFF84480012388F8183091F9110093
S315000026780B7C1B01DBB20E4E321882F800330D4F6D
S3150000268847F82040FFF772FE982388F8143095F92A
S315000026981300AB7C1B01DBB2064486F8003347F80F
S315000026A82040FFF763FECDE700E07F404E45504FE0
S315000026B800E100E0D40A002008B5FFF739FF08BD9D
S315000026C810B4124B046B1C63A3F5F0334FF0200CC7
S315000026D883F800C04FF0D00C83F800C0036B0B449E
S315000026E80363836B013B836310461AB95DF8044B99
S315000026F870470138054BD3F8803013F4004F03D1E7
S315000027080028F6D11420F1E70020EFE700E07F402B
S315000027181D4BB3F8841089B24FF42A42A3F88420DB
S315000027284FF49642002000E0013A174BB3F8843084
S315000027389BB223B1002AF7D14FF4FA70F4E70129C6
S3150000274802D0802918D070470F4B4DF60112A3F816
S3150000275844200E4B0122A3F804210C4BB3F8043194
S315000027689BB2002BF9D10123084AA2F80031A2F541
S31500002778A832936013607047054B01225A60044BD8
S315000027885B68002BFBD1DEE700E07F4000C001401C
S315000027980070004082B04FF4964301930E4BB3226B
S315000027A81A7002E0019B013B01930C4BD3F8803071
S315000027B813F4004F05D1019B002BF3D1142002B06E
S315000027C87047064B1B7C13F0100F01D10020F6E76B
S315000027D840F2F510F3E700BF00007E4000E07F40BE
S315000027E810B503461446134A127C12F0100F0CD18A
S315000027F80020104AD2F880200A4200D10446A3B924
S31500002808ACB1FFF7C7FF204610BD0A4AD2F88020B0
S3150000281812F4804F02D140F2F510EAE7054A107C1F
S315000028280020107440F2F510E3E71C46E9E720465D
S31500002838EAE700BF00E07F4082B04FF49643019379
S315000028480E4B50221A7002E0019B013B01930C4B80
S31500002858D3F8803013F4004F05D1019B002BF3D138
S31500002868142002B07047064B1B7C13F0100F01D1E1
S315000028780020F6E740F2F510F3E700BF00007E40BF
S3150000288800E07F4010B584B004468C46436CBBB16B
S3150000289893E807000DF1100E0EE9070083F800C053
S315000028A800225A60A26C9A60226C18469047636CA4
S315000028B823B104AA12E9070083E8070004B010BD93
S315000028C801ABEBE710B582B04FF49643019343682A
S315000028D81A782AB9114B4AF68022A3F884200DE00B
S315000028E8044693F91100FFF741FD636893F9130055
S315000028F8FFF73CFDEEE7019B013B0193074BB3F85D
S3150000290884309BB2802B05D0019B002BF3D14FF46A
S31500002918FA7000E0002002B010BD00BF00E07F4062
S3150000292870B50546FFF7CEFFE0B96B681B78D3B1E3
S31500002938012385F83C300646324604212846FFF72F
S315000029488FFD6B681B786BB918224FF48051FFF71F
S3150000295847FF0446AB6B0BB10028EDD0FFF7D8FE56
S3150000296804B1204670BDEE68E6E708B55B088363E8
S3150000297801634263002380F83C30FFF7D1FF08BDAE
S3150000298870B5054601638263FFF79CFF18BB0646D0
S315000029986B681B78EBB1022385F83C300F4B01229C
S315000029A8A3F8E020324640212846FFF789FE6B68E7
S315000029B81B786BB919224FF40051FFF711FF044633
S315000029C8AB6B0BB10028EDD0FFF7A2FE04B1204691
S315000029D870BD6E6AE2E74FF4FA70F9E700E07F40EF
S315000029E808B54FF0000C80F83CC021F03F01FFF716
S315000029F8C7FF08BDF8B507460C4616461D46FFF73D
S31500002A0861FFD0B91D4B002283F8D0201C633444E3
S31500002A18013C5C63A3F5F03371221A70D0221A7058
S31500002A287B681B7823B97969B60806FB011606E0A8
S31500002A38032387F83C3002232B70F8BD013E0F496B
S31500002A48D1F8801011F4004F02D1002EF6D11420CF
S31500002A584FF4FC720021FFF7C3FE0446074B93F8B8
S31500002A68D430DBB2012B07D000232B70FFF750FEC2
S31500002A78002CE2D02046E0E72B70F7E700E07F4025
S31500002A8808B5FFF7B7FF08BD70B5044643681A785E
S31500002A98EAB193F9113003F01F015B09012202FA2A
S31500002AA801F11748203340F82310BFF34F8FBFF3C7
S31500002AB86F8F636893F9133003F01F015B098A402F
S31500002AC8203340F82320BFF34F8FBFF36F8F0D4B92
S31500002AD8B3F884309BB27BB1FFF75CFE0646FFF77E
S31500002AE8ABFE054606B13546FFF712FE05B1284688
S31500002AF8002384F83C3070BD2046FFF7E3FEEBE781
S31500002B0800E100E000E07F4008B5FFF7BDFF08BD23
S31500002B1870B5EFF30383C3F30803103B5CB2184B9D
S31500002B2853F82450174A137CD2F8802013F0080F64
S31500002B380BD1D9B211F0800F1BD111F0100F1AD09A
S31500002B4812F4405F19D0072600E004262846FFF74E
S31500002B589BFF0D4A04F1C00352F8231021F480317B
S31500002B6842F8231052F8233031462846FFF78AFEEA
S31500002B7870BD0526EAE70726E8E70626E6E700BF6A
S31500002B88D40A002000E07F400060004038B5EFF32B
S31500002B980383C3F30803103B5BB21F4A52F8234072
S31500002BA81E4AC03352F8231021F4803142F823100C
S31500002BB852F8233094F83C50012D12D0022D1ED025
S31500002BC8174B93F8D430DBB2012B22D00225FFF73E
S31500002BD89FFD002384F83C3029462046FFF752FE25
S31500002BE838BDA36B002BF2D0002204212046FFF744
S31500002BF837FC0028F4D02046FFF746FFF0E7A36B22
S31500002C080BB90025E3E7002240212046FFF758FDCF
S31500002C18E6E70325DBE700BFD40A00200060004092
S31500002C2800E07F40064B93F826101A6AC2F3026248
S31500002C38044B53F82130D340034A1360704700BF52
S31500002C4800E0014020040020000B002008B5084BD6
S31500002C58084A1A60084A5A604FF400429A600749BF
S31500002C68D9601A61064A5A61FFF7DCFF08BD00BF42
S31500002C7820040020002D310100127A0000366E0172
S31500002C8800C2EB0B08B50A4B032283F81C2103F597
S31500002C980053084A1A62052283F82620FFF7C2FF66
S31500002CA8054BF1221A7301221A72F0221A7308BD13
S31500002CB800C001402112012000200040704700009A
S31500002CC808B5144B93F880342BB9124B93F881341A
S31500002CD813F0030F18D00F4B93F8803433B10D4B14
S31500002CE8002283F8812483F8802408BD0121094B3A
S31500002CF883F88014C82000F0ADF8064B93F88034AA
S31500002D08DBB2012BF9D1EAE74FF47A70FFF7D6FF69
S31500002D18EBE700BF00E0014038B5224B4AF2035208
S31500002D28A3F8FE23A3F500530122A3F804211E4BA2
S31500002D38B3F804319BB2002BF9D101231A4AA2F841
S31500002D480031A2F5A83293601360FFF77FFF154C98
S31500002D58002584F81354092384F8A230FFF7B0FF3E
S31500002D6884F832500F4B93F83C3013F0080FF9D023
S31500002D780C4B43F202121A85002283F82A20094BCB
S31500002D8893F83C3013F0200FF9D0FFF77BFF054B83
S31500002D98012283F8302083F852204FF42542A3F805
S31500002DA8FE2338BD00E0014000C0014038B5244C80
S31500002DB8002584F828500121C82000F04BF884F833
S31500002DC824501F4B93F82430002BFAD11C4A92F852
S31500002DD8243043F0020382F82430194B93F8243048
S31500002DE813F0020FF9D1164B002283F82220144B58
S31500002DF893F8223003F0FF01002BF8D112E00846C1
S31500002E080F4A01F1200C12F81C3023F0800302F857
S31500002E181C3000F120030A4A12F81330DB09F8D1F6
S31500002E280131C9B20229EAD9012000F031F9054B6E
S31500002E38002283F8BB24012000F0F6F838BD00BF55
S31500002E480030084000E00140A0F101000028FBD155
S31500002E587047000008B500FB01F12F4B1B682F4A8D
S31500002E68934219D303F5741303F6FF0302F185425F
S31500002E7802F5071202F68342A2FB03231B0DA1FBF0
S31500002E8803014FF0FF3383424FF000038B413FD3DA
S31500002E9808B1FFF7D9FF08BD2148B0FBF3F0CA0E09
S31500002EA84B015B1A62F10002920042EA93729B00A0
S31500002EB85B1842F10002D20042EA5372DB004FF07F
S31500002EC8FF3C9C454FF0000C7CEB020C03D3B3FB94
S31500002ED8F0F39808DCE78000B1FBF0F1CA0E4B016D
S31500002EE85B1A62F10002920042EA93729B005B1839
S31500002EF842F10002D20042EA5372D8004FF0FF3383
S31500002F0883424FF000039341C2D24FF0FF30C0E72F
S31500002F184FF0FF30BDE700BF000B002000127A001B
S31500002F2800CA9A3B08B5034B53F8203003B19847BB
S31500002F3808BD00BF900A002038B50D4BB3F8202114
S31500002F48B3F84051ADB21540002401E00134E4B2B3
S31500002F580F2C08D825FA04F313F0010FF6D02046F3
S31500002F68FFF7E0FFF2E7024BA3F8305138BD00BF88
S31500002F780060004000B585B0032000F089F8254BB5
S31500002F886FF0FF029A644FF0FF33019302930393A5
S31500002F98002300E00133072B14D81F4A32F8132008
S31500002FA8002AF7D05A0903F01F0C04A901EB820284
S31500002FB852F80C1C012000FA0CF021EA000142F834
S31500002FC80C1CE7E700230DE004AA02EB830252F883
S31500002FD80C2C124941F8232003F1A000104941F8AE
S31500002FE820200133022BEFD9032000F01DF800231F
S31500002FF800E00133072B0AD8074A32F81320002AC3
S31500003008F7D003F1C001074840F82120F1E705B0E1
S315000030185DF804FB008000403438000070800040F2
S3150000302800E100E000600040EFF31082012383F323
S315000030381088144B33F810309BB23BB1114931F864
S3150000304810309BB2013B9BB221F810300D4B33F880
S3150000305810309BB293B910B40B49B1F8FE339BB24A
S315000030680A4C34F8100043F4254323EA0003A1F878
S31500003078FE3382F310885DF8044B704782F310889C
S31500003088704700BFF40A002000E00140B039000094
S3150000309810B4EFF31081012383F310880F4B33F834
S315000030A810309BB263B90E4AB2F8FE339BB20D4C90
S315000030B834F810C043EA0C0343F42543A2F8FE3360
S315000030C8064A32F810309BB201339BB222F8103010
S315000030D881F310885DF8044B704700BFF40A00209E
S315000030E800E00140B039000000BE704708B500F0A6
S315000030F837F8FDF73BFDFEE738B50546002400E046
S315000031080134164B1B68A34210D9144B5A6804EBBA
S315000031184403980002EB8303597AA942F0D1105868
S315000031285A68121A002100F07AF8E9E7002400E04C
S3150000313801340A4B9B68A3420ED9084BDA68200172
S3150000314802EB0413597BA942F2D110585A68121A95
S31500003158996800F06CF8EBE738BD00BFD838000076
S3150000316838B5274B4FF47002C3F88820254A9A6071
S315000031780020FDF76FFBFFF7CFFD0120FDF76AFB87
S31500003188214B83F30A880020FFF7B6FFFFF74AFDB5
S31500003198FFF70CFE0320FFF77BFF002307E003F190
S315000031A808011A4A4FF6FF7022F811000133082B5E
S315000031B8F5D90320FFF738FF0320FFF769FF144B03
S315000031C800245C609C60DC601C610320FFF72CFF18
S315000031D80220FDF73FFB0120FFF78EFF0D4D0E4B3A
S315000031E8ED1AAD1004E00C4B53F82430984701341F
S315000031F8AC42F8DBFFF7BEFE002000F00FF838BD42
S3150000320800ED00E00000000020000020000D08404E
S3150000321800000E40183A0000143A000070470244B5
S315000032280346934200D1704703F8011BF9E70A44A5
S31500003238431E914200D1704710B511F8014B9142D7
S3150000324803F8014FF9D110BD5465726D696E616C52
S3150000325800000000284E554C4C2900000D0A526506
S315000032687475726E6564204572726F7220436F645E
S31500003278653A203078257820200D0A000A537461B3
S315000032887274696E670000000D0A2A2A525F494364
S31500003298555F45787465726E616C497271456E61E9
S315000032A8626C6520415049204641494C45442A2ACA
S315000032B80D0A00005B4552525D20496E2046756E28
S315000032C86374696F6E3A20257328292C20257300AC
S315000032D82A2A20525F4949435F4D41535445525F5C
S315000032E84F70656E20415049206661696C6564209F
S315000032F82A2A200D0A0000002A2A20525F4949433B
S315000033085F4D41535445525F577269746520415069
S3150000331849206661696C6564202A2A200D0A000026
S315000033282A2A20525F4949435F4D41535445525F0B
S315000033385265616420415049206661696C65642064
S315000033482A2A200D0A0000000D0A2A2A525F49433C
S31500003358555F45787465726E616C4972714F706518
S315000033686E20415049204641494C45442A2A0D0AB7
S31500003378000000000D0A2A2A20524D5F5645455F77
S31500003388464C4153485F4F70656E20415049204670
S3150000339841494C4544202A2A0D0A00000D0A2A2ACA
S315000033A820524D5F5645455F464C4153485F466F30
S315000033B8726D617420415049204641494C4544206C
S315000033C82A2A0D0A000000000D0A2A2A20524D5FFB
S315000033D85645455F464C4153485F5374617475734F
S315000033E847657420415049204641494C4544202AA6
S315000033F82A0D0A00000000000000545452205245CD
S3150000340847474553000000003031323334353637EC
S31500003418383941424344454668616C5F656E74724B
S3150000342879000000726561645F73656E736F725F21
S315000034386461746100000000696E69745F73656E8B
S31500003448736F72006963755F73315F656E61626C75
S31500003458650000006963755F73315F6F70656E00A4
S315000034686963755F73325F656E61626C6500000043
S315000034786963755F73325F6F70656E007665655F49
S31500003488666F726D61745F6F7065726174696F6E75
S31500003498000000007665655F666C6173685F696E3B
S315000034A8697400000A0C020103000000F909000013
S315000034B800000000C0340000000000000B0B0301F0
S315000034C803000000950A000000000000D834000040
S315000034D800000000000000080200000000200000B4
S315000034E8000000000200000058090020A10A0000A0
S315000034F8000000000035000004350000FC0900202B
S31500003508103500004C380000010000009F12000032
S315000035180000000060090020080008010000000003
S315000035280200000000000000000800000000000083
S31500003538000000000000000000000000000101007B
S31500003548000000000000000000000000000000006D
S31500003558000000000000000001000000A086010035
S3150000356818000000010C0405060700000000000012
S3150000357800000000AD0800000000000088350000CB
S315000035880100031C1C000000530000009C350000CD
S31500003598000000000080000000000000008000001D
S315000035A8010000000040000002000000008000004A
S315000035B803000000040000000400000000400000B2
S315000035C80500000010400000060000000080000012
S315000035D8070000001040000008000000040000007A
S315000035E809000000008000000E00000000800000B6
S315000035F80F000000000C011C00010000000C011C5B
S3150000360801010000000C011C02010000000C011C55
S3150000361803010000000C011C04010000000C011C41
S3150000362805010000000C011C06010000000C011C2D
S315000036380701000000000100080100000000010069
S3150000364809010000000001000A0100000400000052
S315000036580B010000040000000F0100000000010635
S315000036680202000000000106030200000000010635
S315000036780402000000000106050200000000010027
S31500003688000300000000010601030000040000001A
S31500003698030300000400000004030000000C0111ED
S315000036A805030000000C011106030000000C0111BF
S315000036B807030000000C011108030000000C0111AB
S315000036C809030000000C01110A03000004000000B1
S315000036D80B030000040000000C03000004000000B7
S315000036E80D0300000400000000040000000C011790
S315000036F801040000000C011702040000050C00007C
S31500003708030400000400000004040000000C011774
S3150000371805040000000C0117060400000000011350
S315000037280704000000000103080400001040000020
S3150000373809040000000001060A0400000000010652
S315000037480B040000000001060C040000000001063E
S315000037580D040000104000000E04000004000000E4
S315000037680F0400000000011300050000000001130B
S3150000377801050000400001040505000040000104A1
S3150000378806050000400401070B0500004004010778
S315000037980C050000000C011C00060000000C011CB2
S315000037A801060000000C011C02060000000C011CAA
S315000037B80A060000040000000B06000004000000D2
S315000037C80C060000000001050D06000000000105BA
S315000037D80E060000000C011700070000000C011778
S315000037E801070000000C011702070000000C011772
S315000037F803070000000C011704070000000C01175E
S315000038080507000004000000080700000400000087
S3150000381809070000040000000A0700000400000071
S315000038280C070000040000000D07000031003000FE
S315000038380B000C00780079007A007B000204030470
S31500003848040400003926000073290000E929000055
S31500003858892A0000C5230000E923000095230000FB
S31500003868B5230000B9230000B1230000112B000086
S31500003878C1260000BD230000C12300004D2400001E
S31500003888572400005B2400005F2400006324000026
S3150000389801000000A038000000000008FF1F000813
S315000038A8400000000400000002000000B8380000D4
S315000038B800000000FFFF000000200000800000005C
S315000038C800000100FFFF0F000080000080000000DC
S315000038D804000000803900000800000000390000DC
S315000038E802000000F03800000000006800000068D0
S315000038F8200000202000002000000068000000686A
S315000039080000006000010C08000000680000006864
S315000039180000007000010908000000680000006847
S3150000392800000008000102080000006800000068A6
S3150000393860000000000101080000002000000020CF
S315000039480000006000010C030000002000000020B9
S31500003958000000700001090300000020000000209C
S3150000396800000008000002030000002001000020FB
S315000039786000000000000103000000680000006805
S315000039880001000800000068000000680001000847
S315000039980100002020000020000000033C04002055
S315000039A8040B0020000000030100020008001000BC
S315000039B8200000004275696C74207769746820528B
S315000039C8656E6573617320416476616E6365642014
S315000039D8466C657869626C6520536F6674776172A8
S315000039E865205061636B6167652076657273696FE0
S315000039F86E20362E342E3000362E342E300000003F
S30900003A0800000406AA
S30900003A0CF8B500BF44
S30900003A10F8B500BF40
S30900003A14D5000000D3
S30900003A18AD000000F7
S3090100A100FFFFFFFF58
S3090100A200FFFDFFFF59
S3090100A280F8F8FFFFE5
S705000030F5D5
