S00F000070726F6A6563742E737265631E
S3150000000020040020E948000035470000E5480000CC
S31500000010E5480000E5480000E5480000E548000026
S31500000020000000000000000000000000E54800009D
S31500000030E548000000000000E5480000E548000033
S31500000040753B0000F93A0000F52D0000053E000062
S31500000050F52D0000F12B0000352C0000792C000056
S31500000060BD2C000051320000311E0000991D000019
S31100000070CD1E0000191F00001544000002
S3110000007CA00F0000050000004000350049
S315000000880348044B834202D0034B03B11847704719
S315000000980C0000200C00002000000000064B074959
S315000000A8C91A891048BF0131491003D0044B0BB156
S315000000B801481847704700BF0C0000200C000020BC
S315000000C80000000010B5064C237843B9FFF7D8FFA7
S315000000D8044B13B10448AFF300800123237010BD0D
S315000000E83C0400200000000084A2000108B5054B6E
S315000000F81BB105490548AFF30080BDE80840FFF786
S31500000108CDBF00BF000000004004002084A200010B
S315000001180369C268934204D881688A1A1344581E30
S315000001287047981A013870472DE9F84304468846FF
S315000001381646C5688768A7EB0509914509D9406839
S31500000148284404F06EFCBFF35F8F3544E560BDE8D4
S31500000158F88340684A46284404F063FCED1B35449E
S315000001682A4608EB0901606804F05BFCBFF35F8F61
S31500000178E560ECE72DE9F843064688461746C56864
S315000001884FF000091AE05B1B5A1EB3685C1B9442C9
S3150000019828BF1446BC4228BF3C46706822464146E2
S315000001A8284404F03EFCA144A0443F1B2544B36800
S315000001B8AB420BD0BFF35F8FF5604FB133699D42F9
S315000001C8E1D3B2685B1B1A44013ADEE70025F1E782
S315000001D84846BDE8F883000010B5154CA822002152
S315000001E8204604F016FC032323616361114AA261C9
S315000001F8114BE3614FF4806323620023A3626362B9
S31500000208E36222660D4A62661022A2662367E366E7
S315000002186367BFF35F8F06E0C3F10F02084989568B
S31500000228034AD15401330F2BF6D9BFF35F8F10BDA4
S3150000023868080020444A000068040020580400208A
S31500000248304E0000F8B50F461646441C04EB44042D
S31500000258164B03EBC40400EB400003EBC003DD6A56
S31500000268012D0ED0022D1AD0F5B92046FFF750FF02
S31500000278864212D8324639462046FFF755FF35469C
S315000002880BE02046FFF744FF3546864228BF054661
S315000002982A4639462046FFF747FF2846F8BD204636
S315000002A8FFF768FF0546F8E70025F6E76808002027
S315000002B8F8B504460D4616460A4B1B785BB2532B17
S315000002C80DD1EFF311874FF0200181F311883246E3
S315000002D829462046FFF7B6FF87F31188F8BDFFF7D2
S315000002E87BFFEEE76808002010B504468268531CB9
S315000002F84068834205D820688154A360E3680133C7
S31500000308E360A26863689A4200D010BD216820693C
S31500000318FFF7CEFFA368984203D04FF0FF33E360A0
S31500000328F3E70023A360F0E72DE9F84F81460F466F
S3150000033815461E46DDF828A00B9A0B464FF0010815
S3150000034803E0B3FBF5F308F10108AB42F9D2B04577
S3150000035800D2B04612F0010B18D1BAF1000F15D031
S3150000036812F0020F02D0BEB1202400E02024BAF118
S31500000378000F0BD0C24509D90AF1FF3A2146484673
S31500000388FFF7B2FFD9F80C30002BF0DAD9F80C30A9
S31500000398002B25DB012404E03024E8E7013E05FBB9
S315000003A804F4012EFAD8B7FBF4F39D42F7D900E01E
S315000003B81C46B7FBF4F304FB1377124AD15648469A
S315000003C8FFF792FFD9F80C30002B03DBB4FBF5F3EB
S315000003D8AC42EDD2BBF1000F02D0BAF1000F01D149
S315000003E8BDE8F88FBAF1000FFAD0C245F8D90AF17C
S315000003F8FF3A20214846FFF777FFD9F80C30002B43
S31500000408F0DAEDE7444E00002DE9F04782B00746E2
S315000004188846154699460A9EDDF82CA081EAE17CB5
S31500000428ACEBE17C012402E09CFBF5FC013465455C
S31500000438FADD4C4500D24C4636B1B8F1000F02DB66
S315000004481AF0040F00D0013E1AF0020F02D0B9F1DB
S31500000458000F03D01AF0010F00D1AEB9FB68002BCC
S315000004680FDBB8F1000F1CDB1AF0040F20D1FB6874
S31500000478002B06DB0AF00303022B1ED0FB68002BB9
S315000004882DDA02B0BDE8F087002EE7D0A642E5D9FE
S31500000498013E20213846FFF727FFFB68002BF3DAD9
S315000004A8DCE7C8F100082D213846FFF71DFFDEE717
S315000004B82B213846FFF718FFD9E7B9F1000FDDD130
S315000004C8002EDBD0002ED9D0A642D7D9013E302146
S315000004D83846FFF709FFFB68002BF3DACEE7CDF8BD
S315000004E804A000964B462A4641463846FFF71CFFAD
S315000004F8C7E700002DE9F04399B006460C461546B5
S3150000050803AB139340231493002315931790169364
S31500000518A2E00020012211E040F0010001340CE0C5
S3150000052840F00200013408E040F00400013404E021
S3150000053840F00800013400E000221AB394F90030B4
S31500000548233B0D2BF8D801A151F823F039050000FB
S315000005584105000041050000410500004105000075
S315000005684105000041050000410500003105000075
S315000005784105000021050000410500004105000075
S315000005882905000094F90030A3F13001C9B2092900
S3150000059807D8013402EB820203EB4203A3F13002CF
S315000005A8F0E72E2B04D00027B84694F9003025E052
S315000005B804F1010C94F901302A2B07D102342B6877
S315000005C8191D29601F684FF00108EEE70027B84695
S315000005D89CF90030A3F13001C9B209290AD80CF1F7
S315000005E8010C07EB870703EB4703A3F130074FF02E
S315000005F80108EDE76446D8E714F9013F6C2BFBD0F8
S31500000608682BF9D0252B00F0818021DB782B1FDCA5
S31500000618582B1DDB583B202B1AD8DFE803F040196E
S315000006281919191919191919191128191919191925
S315000006381919191919196A19194C1934191940006F
S315000006482B681A1D2A6093F9001013A8FFF74CFEB1
S315000006580134169B002B5EDB14F9011B00295AD0C6
S3150000066825293FF456AF13A8FFF73EFEF1E72B689E
S31500000678191D29601968019000923B460A2213A8A1
S31500000688FFF7C2FEE4E72B68191D29601968019077
S3150000069800923B460A2213A8FFF746FED8E72B68C6
S315000006A8191D29601968019000923B46102213A86B
S315000006B8FFF73AFECCE72B681A1D2A60D3F800909C
S315000006C8B9F1000F0BD1DFF874904FF0000806E07F
S315000006D813A8FFF709FE013F169B002BB8DB19F993
S315000006E8011B0029B4D0B8F1000FF1D0002FEFD1CB
S315000006F8AEE72B681A1D2A601968002301930823A0
S315000007080093102213A8FFF70FFEA1E7252113A8CF
S31500000718FFF7EAFD9CE7169B002B05DD159A3AB90B
S31500000728169B159A13441693169819B0BDE8F083CC
S3150000073803A93046FFF7BCFDF2E700BF504A0000A8
S315000007480EB400B582B003AB53F8041B019301AA9B
S31500000758FFF7D0FE02B05DF804EB03B07047000067
S3150000076810B51349134803F0CFFC30B912491148A4
S3150000077803F006FE044670B910BD04460F4B104A36
S3150000078810490020FFF7DCFF22460F490020FFF73B
S31500000798D7FF00BEEAE70D4B094A0A490020FFF7D2
S315000007A8CFFF224608490020FFF7CAFF00BEE3E74D
S315000007B868510000180B002054510000584A0000E8
S315000007C8744E0000784A0000944A0000B44A0000BB
S315000007D810B582B0184803F08FFBF0B9174B1B7899
S315000007E8002BFBD0154B00221A700DF106026FF094
S315000007F80201114803F08CFBBDF8060040F22533D0
S3150000080803FB00F00E4B1B68C01A0E4B1B6890FBCF
S31500000818F3F07F3000B202B010BD04460A4B0B4A13
S315000008280B490020FFF78CFF22460A490020FFF7F4
S3150000083887FF00BED2E700BF180B0020140900206E
S315000008481009002000000020D84A0000644E00006D
S31500000858784A0000944A000010B588B000211B4869
S3150000086803F05DFBA8B907A9184803F04AFB04463C
S31500000878E8B99DF81C30002BF5D101A9134803F0FF
S3150000088889FD049B40F2253202FB03F3104A1360EC
S3150000089819E004460F4B104A10490020FFF750FF95
S315000008A822460F490020FFF74BFF00BEDBE70D4B42
S315000008B8094A0A490020FFF743FF22460849002053
S315000008C8FFF73EFF00BE08B010BD00BF180B0020A2
S315000008D810090020FC4A0000544E0000784A000027
S315000008E8944A0000204B0000014B01221A70704701
S315000008F81409002010B50A490A4803F0FDF900B9A1
S3150000090810BD0446084B094A09490020FFF718FF9D
S31500000918224608490020FFF713FF00BEF0E700BF94
S3150000092814500000600A0020444B0000904E00005E
S31500000938784A0000944A000010B5094803F044FAC2
S3150000094800B910BD0446074B074A08490020FFF7BF
S31500000958F7FE224606490020FFF7F2FE00BEF0E742
S31500000968600A0020644B0000804E0000784A0000B0
S31500000978944A000010B50A490A4802F031FC00B949
S3150000098810BD0446084B094A09490020FFF7D8FE5E
S31500000998224608490020FFF7D3FE00BEF0E700BF55
S315000009A8A8500000C80A0020884B0000C04E00006E
S315000009B8784A0000944A000010B5094802F083FA04
S315000009C800B910BD0446074B074A08490020FFF73F
S315000009D8B7FE224606490020FFF7B2FE00BEF0E742
S315000009E8C80A0020AC4B0000B04E0000784A000050
S315000009F8944A000010B5094802F060FA00B910BD23
S31500000A080446074B074A08490020FFF799FE224685
S31500000A1806490020FFF794FE00BEF0E7C80A00204A
S31500000A28D04B0000A04E0000784A0000944A00000F
S31500000A38014B01221A7070471509002010B50024D1
S31500000A4805E000F05FF9094B23F814000134092C7E
S31500000A58F7DD064C14222146AA2000F0EDFA002301
S31500000A6823606360A360E360236110BD2C09002046
S31500000A7808B5FFF77FFFFFF73DFF00F09FF900F08D
S31500000A88BFF900F0E1F900F001FA00F079FA00F098
S31500000A9899FA00F015F9FFF763FEFFF7DDFE00F09F
S31500000AA819FA0749074801F01DFB10B9FFF7C6FFF9
S31500000AB808BD024604490020FFF742FE00BEF5E7DE
S31500000AC840500000800A0020944A000070B5FFF7E5
S31500000AD8CFFFFFF771FF0024264602E0564B00229F
S31500000AE81A70554B1B785BB3544B1A78B2FA82F2DC
S31500000AF852091A7040F20F41514801F0C9FB00F043
S31500000B0801F90546FFF764FE054445F34F054D48D0
S31500000B1820F81450022100EB440000F0FDF90134DE
S31500000B28E4B20A2CDAD1474D14222946AA2000F04D
S31500000B3883FA00242C606C60AC60EC602C61CDE715
S31500000B48414B1B7893B39EB1012ECAD13F4B002669
S31500000B581E605E609E60DE601E613B4B1E70324604
S31500000B6840F20441364801F093FBFFF725FFB8E74A
S31500000B78FFF740FF324D002240F20F41284601F0B0
S31500000B8887FB012240F20441284601F081FB2E4BE7
S31500000B9800221A702D4D14222946AA2000F076FA52
S31500000BA81421284600F0B8F901369AE7284B1B7835
S31500000BB8002B96D0224D002240F20F41284601F024
S31500000BC867FB002240F20441284601F061FB01223E
S31500000BD84FF48061284601F05BFBFFF70BFFFFF738
S31500000BE8ABFE1C4801F010FB0546C0B9144D0022A7
S31500000BF840F20F41284601F04BFB002240F2044127
S31500000C08284601F045FB00224FF48061284601F092
S31500000C183FFBFFF7D1FE0E4B00221A7061E70E4B21
S31500000C280E4A0F490020FFF78BFD2A460D49002082
S31500000C38FFF786FD00BED9E7150900201609002032
S31500000C48480900202C090020430900201809002023
S31500000C5844090020800A0020F44B0000D04E000012
S31500000C68784A0000944A0000022800D0704708B568
S31500000C780249034801F0D2FB08BD00BF8C510000B1
S31500000C884809002082B00D4B1B88ADF8043003F0EC
S31500000C981F018DF8041013F0100F0BD0DAB202F012
S31500000CA80F028DF80420180B00EB0210C0F58070B7
S31500000CB802B07047180B00EB0110F9E74009002055
S31500000CC810B50A490A4801F08FFC00B910BD044660
S31500000CD8084B094A09490020FFF732FD2246084910
S31500000CE80020FFF72DFD00BEF0E700BF785000009A
S31500000CF8880A0020204C0000F04E0000784A0000C8
S31500000D08944A000010B51E4B00221A7001231A4699
S31500000D181C491D4801F064FDB8B9194B1B78002B16
S31500000D28FBD00023164A137002221849164801F010
S31500000D3850FD0446B8B9124B1B78002BFBD0104B5C
S31500000D4800221A70FFF79EFF10BD0446104B114A89
S31500000D5811490020FFF7F4FC224610490020FFF74E
S31500000D68EFFC00BED9E70E4B0A4A0B490020FFF7F5
S31500000D78E7FC224609490020FFF7E2FC00BEDAE755
S31500000D884209002004000020880A002040090020AB
S31500000D98484C0000DC4E0000784A0000944A0000E7
S31500000DA8704C00000379023BDBB2012B00D9704777
S31500000DB8014B01221A70FAE74209002010B50A49C8
S31500000DC80A4801F0C5FF00B910BD0446084B094A98
S31500000DD809490020FFF7B4FC224608490020FFF71E
S31500000DE8AFFC00BEF0E700BF9C4F00005009002092
S31500000DF8984C00000C4F0000784A0000944A000006
S31500000E0810B5094801F0EAFF00B910BD0446074BC2
S31500000E18074A08490020FFF793FC224606490020A6
S31500000E28FFF78EFC00BEF0E750090020C44C000016
S31500000E38FC4E0000784A0000944A0000014B01224B
S31500000E481A7070474309002010B50A490A4801F08C
S31500000E587FFF00B910BD0446084B094A094900201E
S31500000E68FFF76EFC224608490020FFF769FC00BE22
S31500000E78F0E700BFB44F000060090020984C00005E
S31500000E88284F0000784A0000944A000010B5094827
S31500000E9801F0A4FF00B910BD0446074B074A0849EC
S31500000EA80020FFF74DFC224606490020FFF748FCC4
S31500000EB800BEF0E760090020C44C0000184F00008F
S31500000EC8784A0000944A0000014B01221A707047C4
S31500000ED84409002010B50A490A4800F0ADFE00B9D9
S31500000EE810BD0446084B094A09490020FFF728FCAB
S31500000EF8224608490020FFF723FC00BEF0E700BFA2
S31500000F0820510000E80A0020F04C0000404F000085
S31500000F18784A0000944A000010B50A4601460D4872
S31500000F2800F0B6FD38B90C4B1B78002BFBD00A4BEA
S31500000F3800221A7010BD0446084B094A09490020C8
S31500000F48FFF7FEFB224608490020FFF7F9FB00BE23
S31500000F58E9E700BFE80A002045090020144D000013
S31500000F68344F0000784A0000944A00000379022BA7
S31500000F7800D07047014B01221A70FAE74509002094
S31500000F8810B50A490A4800F099FB00B910BD044695
S31500000F98084B094A09490020FFF7D2FB22460849AF
S31500000FA80020FFF7CDFB00BEF0E700BFCC4F0000E6
S31500000FB878090020384D00008C4F0000784A000060
S31500000FC8944A000010B586B000238DF817300DF14D
S31500000FD81701134800F0B4FA38B901A9104800F00F
S31500000FE806F9044678B906B010BD04460D4B0E4AFC
S31500000FF80E490020FFF7A4FB22460D490020FFF703
S315000010089FFB00BEEFE70B4B074A08490020FFF796
S3150000101897FB224606490020FFF792FB00BEE2E74F
S3150000102878090020604D0000744F0000784A0000DF
S31500001038944A00008C4D000010B513460A46014636
S315000010480C4800F0DDFB38B90B4B1B78002BFBD0A6
S31500001058094B00221A7010BD0446084B084A094974
S315000010680020FFF76DFB224607490020FFF768FBC3
S3150000107800BEF0E77809002046090020B84D0000B8
S31500001088604F0000784A0000944A000070B582B0AC
S315000010980D4614466B4601AA0146114800F037F87A
S315000010A840B9009AA24213D80199284603F0B9FC20
S315000010B802B070BD06460B4B0B4A0C490020FFF7E1
S315000010C83FFB32460A490020FFF73AFB00BEEFE72E
S315000010D8084B054A05490020FFF732FBE8E700BF41
S315000010E878090020E44D00004C4F0000784A0000C3
S315000010F8944A0000144E0000014B01221A707047F2
S315000011084609002008B5FFF7E1FC002008BD10B429
S315000011188469646934F8111049B1C4686018615A61
S3150000112819600430106000205DF8044B70472220D7
S31500001138FAE710B582B004460A46D0F89430BBB137
S3150000114893E803000DF1080C0CE9030092E803008C
S3150000115883E80300D4F8902018469047D4F89430D2
S3150000116823B102AA12E9030083E8030002B010BD06
S315000011780B46EFE741B1436813B14368022B03D12D
S3150000118804234360012383607047024606E0002378
S3150000119853674B69506F33F810303BB9536F0133BF
S315000011A85367916908698342F3D9F0E7704738B500
S315000011B80A238360036C01330364D0F88440A36870
S315000011C85D680823C26800F140012068A84738BD59
S315000011D8436843B98368012B02D001230B7004E0EE
S315000011E800230B7001E043680B700020704738B588
S315000011F805460C46FFF7ECFFEB6D6360237813B9E1
S31500001208EB681B68E3606B692A699B1AA36038BDA3
S31500001218F0B583B005461E4600238377D0F88400D0
S315000012288368DC680DF107030068A047074608BB1A
S315000012380446134A944207D8AA7F2AB901210846C8
S3150000124803F002FA0134F4E795F8583033700D4B81
S315000012589C4212D095F85830DBB2022B0AD095F88A
S315000012685830DBB2032B05D095F8583085F859303D
S315000012784FF4FA77384603B0F0BD1427FAE700BFF3
S315000012883F420F0040420F0070B582B005460E4639
S3150000129802238DF80730C36803F10804D0F88820C4
S315000012A81344436100212BE00DF107030422214674
S315000012B82846FFF7ADFF014670BB9DF80730022BA5
S315000012C828D0D5F88830A869C2680A32A3EB42024A
S315000012D823889A421DD32344073323F00303B3F824
S315000012E802C04BF6AD62944519D1EA684069B3F875
S315000012F800C0A21A20F81C201C4634F8043BEB65F3
S315000013086B69A34206D9002ECED1AB6EA342D8D1C3
S3150000131800E02121AC662C61084602B070BD21218F
S31500001328F8E7000070B5054600238377D0F88430C7
S31500001338986884681868A047064690B9044604E089
S315000013480121084603F080F901340B4B9C4202D870
S31500001358AB7F002BF4D0094B9C420BD095F8583044
S315000013680BB9304670BD95F8583085F859304FF4AA
S31500001378FA76F6E71426F4E73F420F0040420F00DC
S315000013880AB12120704708B5D0F888209209FFF7DE
S31500001398C9FF08BD70B505460020A877D5F88400B2
S315000013A8846864680068A0470646C8B904460E4BB8
S315000013B89C4207D8AB7F2BB90121084603F044F9B4
S315000013C80134F4E7094B9C420CD095F85830DBB24F
S315000013D8012B05D095F8583085F859304FF4FA7630
S315000013E8304670BD1426FBE73F420F0040420F000F
S315000013F82DE9F04182B004460023C3601E4628E06A
S315000014080DF10703D4F8882039462046FFF700FF78
S31500001418034600284CD19DF80720032A17D100223D
S3150000142839462046FFF7ACFF034610E0D4F888207B
S31500001438920939462046FFF775FF034607E0E7603D
S3150000144805E0002239462046FFF79AFF03467BBB94
S315000014580136A2695168B1422AD9D2F80080D4F877
S31500001468885006FB05F508EB05070DF1070308226A
S3150000147839462046FFF7CCFE0346C8B99DF8072033
S31500001488022ABDD0F9884BF6AD629142D9D1E168FE
S315000014980029D4D058F805200B689A42C6D9D4F842
S315000014A8882092092046FFF73DFF0346E760CEE70E
S315000014B8E26842B9A1690A6888680244D4F88800D3
S315000014C8121AE2601BB1184602B0BDE8F081236427
S315000014D84BF6AD63A4F846300A688B681A440823AD
S315000014E8121A04F140012046FFF754FF0346EAE7C3
S315000014F838B5044683691A690132520000215869D1
S3150000150803F087FA0023A3774FF6FF73E3652046B7
S31500001518FFF76EFF21280FD068B90025002323772F
S31500001528637701212046FFF7AFFE212803D010B9C3
S3150000153825B90123A36038BD0125EFE72120FAE785
S3150000154838B504460023836083699A689209196846
S31500001558FFF7E8FE054628B129462046FFF70AFEAA
S31500001568284638BD2046FFF7C3FF0546F4E710B501
S315000015780446436EC36083691A690132520000212A
S31500001588586903F046FA00212046FFF77DFE10BD94
S3150000159838B50446406EA269536933F81130C51848
S315000015A8E567C35A0B3323F00303C4F88030236975
S315000015B8E06852691B1A22F811302369D4F8802092
S315000015C81A44E368D4F888100B449A4201D80020DC
S315000015D838BD2046FFF7CBFF032363600123A360D2
S315000015E8F6E7F8B54368032B23D004460E46D0F831
S315000015F880501F2D00D9202504F11F072A46E16FC8
S31500001608384603F00EFAA660D4F8840083685E684C
S315000016182B46226939460068B04723692B44236163
S31500001628E36F2B44E367D4F880305B1BC4F8803043
S31500001638F8BD0020FCE7F8B504460D469C46022393
S315000016484360016699420AD00021A06903698B426A
S3150000165806D3406930F8110010B90131F5E7114693
S31500001668E268D4F8886002EB060EA7693868BB689A
S315000016780344734500D070466266E06006446661BE
S315000016883B698B4215D3083020618BB223676367A9
S31500001698022D08D02046FFF77BFF68B906212046B1
S315000016A8FFF79FFF08E0069B6246204600F07EF89B
S315000016B802E02046FFF77BFDF8BD000070B582B05A
S315000016C8044681610B6A1A68C0F884208B684868EA
S315000016D8B3FBF0F3C4F888300023A4F84830A4F824
S315000016E84A30E3642364A4F844304BF6AD60A4F8AA
S315000016F846004FF6FF75A4F85050A4F85200A4F817
S315000017085430A4F856008869C4F89000C969C4F82A
S315000017189810C4F8943093681B6851681068984705
S31500001728054610B1284602B070BD0023A3602046C6
S31500001738FFF7DEFE0546212807D045B3D4F88430E6
S315000017489A68526918689047ECE7002100910B46A1
S315000017580A462046FFF76FFF05460028EED10646E3
S3150000176804E00121084602F06FFF01360C4B9E4249
S3150000177802D8A368012BF4D10A4B9E4205D06368B0
S31500001788042BDAD14FF4FA75D8E71425D6E7E368BF
S315000017981B68236400236360034B2360C2E700BF12
S315000017A83F4B4C00404B4C004545565230B583B034
S315000017B81446026902EB030C0CF10B0C2CF0030C1B
S315000017C84569AC4515D8A0F85010A0F84830C3684C
S315000017D8D31AA0F84A3002238360C464D0F8844040
S315000017E8A3685D68042300F148012068A84703B090
S315000017F830BD009323460A460221FFF71CFFF6E791
S3150000180838B50546FFF7D2FF044601462846FFF7D6
S31500001818B1FC204638BD10B50446FFF7B6FC236F69
S31500001828834209D001462046FFF7B2FE48B9062191
S315000018382046FFF7D6FE04E02369A3672046FFF794
S31500001848B6FC10BD70B582B00378846884F8583049
S31500001858A368B3B194F85830DBB2012B14D094F8CE
S315000018685830002B40F0BD80002161600123A36041
S315000018782046FFF77FFCA368012B00F0CB8002B05F
S3150000188870BD0123A377FAE7A368023B082B00F291
S31500001898BF80DFE803F00551326B83BDBDBD910003
S315000018A8256904352561E66C3146B4F848000346D7
S315000018B80322A26002400AD10322A260D4F884005F
S315000018C8826856682A460068B0470146D0E703286A
S315000018D804D920F003030422A260EFE704F18C0385
S315000018E80021C4F88C1031461E46184603F099F8B4
S315000018F80323A36031460423E0E7B4F8482022F026
S3150000190803060323A36004F18C050023C4F88C3076
S31500001918E16C02F003023144284603F082F822699A
S3150000192832442261D4F8840083685E680423294619
S315000019380068B04701469BE7B4F8483013F0030F38
S3150000194810D02369043323610523A360D4F88400E7
S3150000195883685D680423226904F150010068A8477A
S31500001968014685E722691A442261EDE7B4F850205A
S31500001978E265236904332361A3695B69B4F84A10F5
S3150000198823F81210616821B90123A3602369A366AD
S315000019986EE72046FFF73FFF014669E7D4F8803037
S315000019A82BB106212046FFF71CFE014660E72046BC
S315000019B8FFF731FF01465BE7E368D4F88820134454
S315000019C8636100232377A36F23610B23A360D4F8F5
S315000019D8843099688D689209616E1868A84701462F
S315000019E846E76368022B09D0002194F8583084F83A
S315000019F85930042363600123A36039E7A3680B2BDE
S31500001A0801D10021F1E72046FFF7B1FD0146ECE7D9
S31500001A1800212DE7D4F89030002B3FF430AF69460B
S31500001A282046FFF7D5FBD4F898300193694620463F
S31500001A38FFF77FFB23E700000B4B00F1C00253F8CA
S31500001A48221021F4803143F8221053F82230BFF3D4
S31500001A585F8F00F01F024009012393406030034A5C
S31500001A6842F82030704700BF0060004000E100E007
S31500001A7810B50446FFF7E0FF04F01F0264090123CE
S31500001A889340024A42F8243010BD00BF00E100E04E
S31500001A9810B4046AA37803F07B03A370837803F079
S31500001AA80303D21A02610B44C360026A937843F0B7
S31500001AB880039370837803F00303022B06D0036A2E
S31500001AC80A78DA7000205DF8044B70470B88026AC2
S31500001AD843F47E43D381F5E730B402F01F0354097B
S31500001AE801259D400E4B203443F82450BFF34F8FF9
S31500001AF8BFF36F8F0B4C02F1C00C54F82C5025F431
S31500001B08803544F82C5054F82C400901C9B21344C6
S31500001B1883F80013044B43F8220030BC704700BF1B
S31500001B2800E100E000600040980B002038B505464B
S31500001B380C4691F90B20897AFFF7CEFF94F9052018
S31500001B4821792846FFF7C8FF94F90720A179284686
S31500001B58FFF7C2FF94F90920217A2846FFF7BCFF50
S31500001B6838BD8B7843704A78037862F301030370B3
S31500001B78CB788374C37903F0A3030A7802F05C0276
S31500001B881343C371704710B50A780123934040F296
S31500001B98F932134203D0036A4FF478429A828A785C
S31500001BA8CB78DB0043EA02134A78032A03D0002ADB
S31500001BB831D0F22202E043F04003F222DBB2046A9B
S31500001BC82370D3B2026A9371C9690B7B082B24D0A0
S31500001BD85B00026A03F0020353734B78DB01DBB246
S31500001BE88A78520102F020021343026A4FF0000C71
S31500001BF882F808C00A78023AD2B2012A14D8026AD0
S31500001C084FF0FF0C82F801C00A78022A09D0026A4E
S31500001C18DBB2D37110BDE222D0E7036A0A225A73F7
S31500001C28DBE743F01003F2E7026ADBB2D3714968D7
S31500001C38006AFFF796FFEDE7F8B504460D460B7800
S31500001C4801229A4012F0060F05D0CA695268127826
S31500001C5812F0080F72D103F5800303F58C531B02AB
S31500001C68236200232370E5616A696262AA69E262F7
S31500001C78A362A378012262F30103A3706B7823B9E8
S31500001C88A378022262F30103A37029462046FFF7D0
S31500001C984DFFEFF31086012282F31088284B59680E
S31500001CA82F784FF00040F84021EA000159605B6840
S31500001CB886F31088216A00238B70216A0B71216ACA
S31500001CC84B72216A8B72216ACB72216A4B832B78FD
S31500001CD89A4040F2F9331A4202D0236A4022DA7453
S31500001CE8236A06221A7729462046FFF74CFF002664
S31500001CF8E66026616661A661EF693D78E36993F956
S31500001D080500FFF7B5FEE36993F90B00FFF7B0FE90
S31500001D18E36993F90700FFF7ABFEE36993F9090056
S31500001D28FFF7A6FE05F0030545F07005236A9D70CA
S31500001D387B892381034B63603046F8BD0320FCE7AB
S31500001D48004008405549435370B584B005460E46D1
S31500001D589446846ACCB194E80F000DF1100E0EE992
S31500001D680F00EB691B782360A66084F804C0EB6A51
S31500001D78E3606B6A20469847AC6A24B104AB13E962
S31500001D880F0084E80F0004B070BD6C46E9E7000058
S31500001D9808B5EFF30383C3F30803103B5BB2204A8D
S31500001DA803F1C00152F8210020F4803042F82100E6
S31500001DB852F821201B4A52F82300C3691B698BB1CC
S31500001DC8036973B9026A937803F07F0343F0040347
S31500001DD893700023C360436A1BB180220021FFF77A
S31500001DE8B3FF08BD0369002BEAD0837803F0030329
S31500001DF8022B0DD0C268036A1278DA7002698378FA
S31500001E0803F00303D21A0261C2681A44C260D7E714
S31500001E18C3681B88026A43F47E43D381EEE700BF9A
S31500001E2800600040980B002010B582B0EFF30383E2
S31500001E38C3F30803103B5BB2204A03F1C00152F812
S31500001E48210020F4803042F8210052F821201C4A53
S31500001E5852F82340A37803F00303022B0DD0236A1C
S31500001E685B790193A36973B9636A23B10422019963
S31500001E782046FFF769FF02B010BD236A1B8AC3F329
S31500001E8808030193EEE7A27802F0030201A960694C
S31500001E9802F0C7FD6369A27802F003021344636186
S31500001EA8A3699B1AA361002BE5D1636A002BE2D0D4
S31500001EB8012200212046FFF747FFDCE700600040CB
S31500001EC8980B002010B5EFF30383C3F30803103B08
S31500001ED85CB20D4B53F82400026A937803F07B0337
S31500001EE89370436A1BB102220021FFF72DFF074AB0
S31500001EF804F1C00352F8231021F4803142F823106C
S31500001F0852F8233010BD00BF980B00200060004037
S31500001F1810B5EFF30383C3F30803103B5CB21A4B07
S31500001F2853F82400837803F00303022B27D0036AAF
S31500001F385979C9B2036A93F804C00CF038021CF048
S31500001F48100F06D093F81CC01CF0010F01D142F007
S31500001F58400293F804C00CF0C70C83F804C0436A27
S31500001F680BB1FFF7F1FE094A04F1C00352F823103A
S31500001F7821F4803142F8231052F8233010BD036A49
S31500001F88198AC1F30801D5E7980B002000600040C4
S31500001F98C0B9114A92F83820D2B2012A14D10E4A91
S31500001FA892F83220D2B2012A10D10B4A92F82A208E
S31500001FB8D2B2012A0CD1084A92F84A20D2B2012A92
S31500001FC808D17047052070470520704705207047DF
S31500001FD8052070470520704700E00140034B93F841
S31500001FE8AA3013F0100FF9D1704700BF00E0014086
S31500001FF838B50446012002F045FCFFF7EFFF2378C9
S31500002008002B67D0042B1DD000232278032A41D049
S315000020180020627F920342F400423049A568C1F865
S31500002028A051E468C1F8A44192B22D498A81C2B28E
S3150000203881F89220DBB281F80034012002F0EEFB31
S31500002048002038BD94F82020254B83F8022494F804
S31500002058212083F8032494F8222083F8042494F892
S31500002068232083F8052494F8282083F80A2494F872
S31500002078292083F80B2494F82A2083F80C24E27F7D
S3150000208802F0030242F08002A37F9B0103F04003A3
S315000020981343BAE7256962692A4319D00022104911
S315000020A8C1F898506069C1F88800207F42EA40006C
S315000020B8658B0A4AB2F800C265F3080CA2F800C29A
S315000020C8227E81F89420228B120A81F89520A0E7B7
S315000020D80122E4E700231A461846A5E700600040F7
S315000020E800E0014010B5044608466160FFF780FF2E
S315000020F830B900F1A643A3F1B313A3F52F43236028
S3150000210810BD0000F8B504463E4B9B8913F4004FFA
S3150000211816D100252E462F4663681B78032B55D00B
S31500002128BFF34F8F30BF374A92F8923023F08003BF
S3150000213882F89230938913F4004F51D10020F8BDEC
S31500002148304B93F82600C0B293F8A07007F0030747
S3150000215893F8AA6006F0010693F80034DB0919D152
S31500002168284B93F8923013F0010F0DD1002002F09E
S3150000217889FB244A92F84030DD0992F8403003F092
S315000021887F0382F84030C7E7FFF702FF0028EDD04B
S315000021980520D4E7002002F075FB1A4B93F80E24AD
S315000021A822F0010283F80E2493F80624002283F80D
S315000021B8062493F8071483F8072493F8081483F879
S315000021C8082493F8091483F80924D2E70D4B93F8E9
S315000021D8922042F0800283F8922093F892309FE78B
S315000021E8FFF7FCFE074A82F8A07082F8AA6092F808
S315000021F840302B4382F84030002002F00FFB0020CD
S315000022089DE700BF00E0014010B50446FFF7E6FE73
S31500002218012002F037FB2046FFF774FF0446012031
S3150000222802F0FCFA204610BDEFF31081012383F378
S315000022381088074B1B6823B9064B0022DA70402228
S31500002248DA70034A13680133136081F31088704704
S31500002258940B0020000D0840EFF31083012282F34F
S315000022681088094A12681AB107490A68013A0A60C9
S31500002278054A126822B9054A0021D1708021D17019
S3150000228883F31088704700BF940B0020000D0840A8
S31500002298CBB20120984080B262B9024600200B0AF0
S315000022A85B0103F1804303F5002340EA024098608E
S315000022B8002070470022F2E710B411F4803F0ED0D8
S315000022C8030A0C4A1B0153FA80F352F8234024F4FC
S315000022D8803442F8234021F4803442F82340030A2C
S315000022E81B0153FA80F0034B43F820105DF8044BAA
S315000022F8704700BF00080840F8B50646002569E0A3
S31500002308374B93F8BB240123A340DFB2134238D0DE
S3150000231804F12003334A12F81330DB093ED00134A6
S31500002328022C56D8736803EBC50291882E4A32F8F8
S3150000233814209142F3D153F8353003F0F853B3F132
S31500002348807FDDD0B3F1106FDAD0254B93F8BB242C
S315000023580123A340DFB213422DD104F12003214A01
S3150000236812F81330DB09DAD004F1200112F8113023
S3150000237823F0800302F811300121C82002F064F925
S31500002388CDE7012002F07EFA154A92F8BB343B43AA
S3150000239882F8BB34012002F041FAB9E704F12001C2
S315000023A812F8113043F0800302F811300121C820D9
S315000023B802F04AF9B3E7012002F064FA084A92F8F3
S315000023C8BB3423EA070382F8BB34012002F026FA5D
S315000023D8C3E701353388AB4201D90024A0E7F8BD2D
S315000023E800E00140003008400054000038B50546BA
S315000023F8FFF782FFFFF718FF002409E06B6803EB7D
S31500002408C40253F834109088FFF756FF0134A4B27B
S315000024182B88A342F2D8FFF71FFF38BD08B5034B38
S3150000242803600846FFF7E2FF002008BD54524F50EC
S31500002438002807DB00F01F02400901239340024AE7
S3150000244842F82030704700BF00E100E00B4B00F176
S31500002458C00253F8221021F4803143F8221053F8B1
S315000024682230BFF35F8F00F01F024009012393401B
S315000024786030034A42F82030704700BF00600040D1
S3150000248800E100E010B50446FFF7E0FF04F01F0284
S31500002498640901239340024A42F8243010BD00BF64
S315000024A800E100E010B582B004460A46836BBBB172
S315000024B893E803000DF1080C0CE90300E16B1960C1
S315000024C81A71626B18469047A36B23B102AA12E9E8
S315000024D8030083E80300002384F82B3002B010BD04
S315000024E86B46EBE7F8B504460D46036900221A70F9
S315000024F8036940221A7023691A7812F0400FFAD03D
S31500002508C0221A7023685B6A1B79226943F0E003CC
S31500002518137423685B6ADB78226943F0E00353741B
S3150000252823685B6A9B781B0103F07003226943F0FA
S315000025380803937023685B6A1A78012A4AD0042133
S315000025485B785B00DBB222690B43D37023685A6859
S31500002558224B9A4240D0772223695A712369002276
S315000025689A712369B322DA7195F911006B7B1B0105
S31500002578DBB21B4E321882F800331A4F47F8204058
S31500002588FFF780FF95F90F006B7B1B01DBB2321852
S3150000259882F8003347F82040FFF774FF95F91000DA
S315000025A86B7B1B01DBB2321882F8003347F82040F8
S315000025B8FFF768FF95F90E006B7B1B01DBB206443B
S315000025C886F8003347F82040FFF75CFF23699F220F
S315000025D81A70F8BD0521B3E7F722BDE740420F00A0
S315000025E800E100E0980B0020F8B504460A7802F5E9
S315000025F8800202F51F621202026101608A68426067
S315000026080A7B0272CA6942630A6AC2630025856345
S3150000261845618561C561056280F8295080F82A50B0
S3150000262880F82B5080F82C50EFF3108C012282F39F
S315000026381088094E77680B78C3F109039A4027EA90
S315000026480202726073688CF31088FFF74BFF034B26
S31500002658E3602846F8BD00BF004008404349495298
S3150000266810B5044679B90023E36194F8262084F866
S315000026782820A269226284F82C3084F82A3023693B
S31500002688B322DA7110BD03690022DA710168FFF717
S3150000269829FFE8E710B582B004463F4B1B6A019351
S315000026A8019B03F00F230193019AC2F303220198B9
S315000026B821690B7CDBB2A2EB1062934094F82C20C4
S315000026C852B99B0800E0013B13B14A78D209FAD106
S315000026D8002B5FD00023CB71002384F828302362B7
S315000026E8A269E26194F8262084F8272084F82B3022
S315000026F884F82D3084F82E3084F82F3084F8303062
S3150000270823685A6A1378012B3ED0042153785B005C
S31500002718DBB20B4351790901C9B20B439179C9015F
S31500002728C9B220690B43C37021690B7943F01003C2
S315000027380B7121690B7923F008030B7121690B7959
S3150000274823F010030B712169D2790B7962F3C71351
S315000027580B712269537943F001035371236893F986
S315000027680F00FFF765FE2269537A03F0F3035372ED
S315000027782369BF22DA7194F82C303BB92369022207
S315000027885A70002002B010BD0521BFE7002084F86A
S315000027982C00F7E70820F5E700E0014008B541619D
S315000027A88261027A012A07D0003B18BF012380F80C
S315000027B82930FFF76FFF08BD002280F82520426800
S315000027C85200D2B21A4380F82420012280F826202B
S315000027D8EAE708B580F82A300123FFF7DFFF08BDCE
S315000027E808B580F82A300023FFF7D8FF08BD000097
S315000027F810B5044603685B6ADB79002B3AD194F876
S3150000280829301BB194F82730012B37D0E3691BBB5D
S3150000281894F82A30002B36D0236893F90F3003F04A
S315000028281F025B09012101FA02F220331B4840F816
S315000028382320BFF34F8FBFF36F8F2269D37943F0FD
S315000028488003D371236904225A702269537923F0CD
S315000028580103537184F82C102269D37923F04003BD
S31500002868D371C023C3B12269D27912F0400F13D0B5
S31500002878013BF7E70521FFF715FEC0E794F830306E
S31500002888002BE9D0C2E72269537A03F0F7035372A3
S31500002898236908225A70DFE710BD00BF00E100E097
S315000028A838B504460269537AD8B2517A01F0E00184
S315000028B8517203F0030213F0100306D02169497818
S315000028C811F0400F21D0002100E000210A431ED15B
S315000028D823B123695A7812F0400F24D110F0080367
S315000028E806D194F82C20002A45D010F0040F3BD0CE
S315000028F8E269A2BB94F82B208ABB94F8293063B30B
S3150000290802212369B322DA712BE00121DEE70125D2
S3150000291884F82B5029462046FFF7A2FE2946204672
S31500002928FFF7C0FD20E0012284F82B2008225A7008
S3150000293823685B6A19785A791201D2B29B79DB014E
S31500002948DBB220690A43134343F00203C3702269CA
S31500002958537943F00103537106E00321D1E723B904
S3150000296801212046FFF79EFD38BD00212046FFF7CE
S3150000297877FE0121F5E710F0040FF5D023685B6AAE
S31500002988DB79002BF0D004212046FFF78BFDEBE71F
S3150000299810B4C369032B37D0022B4ED0012B38D184
S315000029A890F82A30002B58D0036893F90F3003F0BB
S315000029B81F015B09012202FA01F120332B4C44F86E
S315000029C82310BFF34F8FBFF36F8F0169CB7943F0A5
S315000029D88003CB7101690B7943F010030B71016910
S315000029E80B7923F008030B7101690B7923F01003A7
S315000029F80B7103690421597001694B7923F00103AE
S31500002A084B7180F82C2004E00269137943F04003E7
S31500002A18137101694269036AC97CD154036A013397
S31500002A280362C369013BC36123B90269137923F0C1
S31500002A38400313715DF8044B70470269137943F03C
S31500002A48100313710269137943F0080313710269BD
S31500002A58137923F010031371DBE70269537A03F045
S31500002A68F7035372036908225A70D2E700E100E0BF
S31500002A7810B582B0044690F82D30002B2FD183690B
S31500002A88022B04D80269137943F040031371E369F2
S31500002A98012B0FD023685B6ADB79DBB92369DB7C02
S31500002AA8DBB28DF807309DF80730012384F82D3006
S31500002AB802B010BD2269137943F01003137122691D
S31500002AC8137943F0080313712269137923F010036D
S31500002AD81371DFE705212046FFF7E4FCDEE7C3694B
S31500002AE8002BE5D003685B6ADB791BB92046FFF744
S31500002AF84FFFDDE70521FFF7D5FCF7E790F826300D
S31500002B08032B0ED090F8242003699A7490F8283085
S31500002B18013380F8283090F82730013B80F82730B9
S31500002B28704790F82830022BECD190F83030002B03
S31500002B38F6D0E7E710B5044690F827303BBB90F887
S31500002B48293033BB03685B6ADB7923B190F82B30F5
S31500002B580BB9036AF3B9E36953B16169226A236958
S31500002B688A5C9A74236A01332362E369013BE36151
S31500002B78E36973B92269D37923F08003D371C0223C
S31500002B8862B12369DB79DB0908D0013AF8E7FFF778
S31500002B98B5FF10BD0521FFF785FCDCE7236893F92F
S31500002BA810300F4AC03352F8231021F4803142F80E
S31500002BB8231052F82330236893F91030002B08DBD2
S31500002BC803F01F015B0901228A406033054941F879
S31500002BD823202269D37943F04003D371D9E700BF94
S31500002BE80060004000E100E008B5EFF30383C3F39B
S31500002BF80803103B5BB20B4AC03352F8231021F48A
S31500002C08803142F8231052F82330EFF30383C3F3DD
S31500002C180803103B5BB2044A52F82300FFF728FF6B
S31500002C2808BD00BF00600040980B002008B5EFF310
S31500002C380383C3F30803103B5BB20B4AC03352F855
S31500002C48231021F4803142F8231052F82330EFF391
S31500002C580383C3F30803103B5BB2044A52F823000C
S31500002C68FFF768FF08BD00BF00600040980B002012
S31500002C7808B5EFF30383C3F30803103B5BB20B4AB3
S31500002C8852F82300FFF7B4FDEFF30383C3F30803F9
S31500002C98103B5BB2064AC03352F8231021F4803148
S31500002CA842F8231052F8233008BD00BF980B0020C5
S31500002CB80060004008B5EFF30383C3F30803103B35
S31500002CC85BB20B4A52F82300FFF7EAFDEFF30383E2
S31500002CD8C3F30803103B5BB2064AC03352F823100D
S31500002CE821F4803142F8231052F8233008BD00BF82
S31500002CF8980B0020006000400B4B00F1C00253F80F
S31500002D08221021F4803143F8221053F82230BFF301
S31500002D185F8F00F01F024009012393406030034A89
S31500002D2842F82030704700BF0060004000E100E034
S31500002D3810B50446FFF7E0FF04F01F0264090123FB
S31500002D489340024A42F8243010BD00BF00E100E07B
S31500002D5830B591F9023003711D4AC03352F8234049
S31500002D68002542F823508B688360CB68C36091F8CE
S31500002D7800E080F805E002F80E500B791B01DBB283
S31500002D8891F805C04FEACC1C5FFA8CFC43EA0C03A9
S31500002D9891F803C04CEA030302F80E3090F90430A8
S31500002DA8C03342F8234090F90420AA420BDB4B7843
S31500002DB81B01DBB202F1604101F5614181F8003384
S31500002DC8044B43F82200044B0360002030BD00BFCB
S31500002DD800600040980B00205543490008B590F95B
S31500002DE80400FFF7A5FF002008BD000030B583B03A
S31500002DF8EFF30384C4F30804103C64B2174B53F88A
S31500002E0824305A7916498A5C02F00302032A21D033
S31500002E180A4604F1C00152F8210020F4803042F835
S31500002E28210052F82120BBB100259A682AB15979A8
S31500002E380191DB680093684690474DB1084BC03452
S31500002E4853F8242022F4803243F8242053F82430FF
S31500002E5803B030BD0125E8E70025EEE7980B002012
S31500002E68006000400B4B00F1C00253F8221021F419
S31500002E78803143F8221053F82230BFF35F8F00F0F9
S31500002E881F024009012393406030034A42F820306C
S31500002E98704700BF0060004000E100E010B504463E
S31500002EA8FFF7E0FF04F01F02640901239340024A7A
S31500002EB842F8243010BD00BF00E100E08368C26814
S31500002EC89A60002070478368C2685A60002070477D
S31500002ED8416001230374C36813F00F0F01D0002368
S31500002EE803740A7C054B13441B0283604B694361D8
S31500002EF88B69C36100238361704700BF9016400049
S31500002F0882684FF000431361826853618268936157
S31500002F18826800235362826893627047002800DA49
S31500002F28704708B50901C9B200F1604303F561436A
S31500002F3883F80013024B43F82020FFF7AFFF08BDC4
S31500002F48980B002030B48568AC6E04F1010C0C4671
S31500002F5809B18C4525D813F0010F13D16B6B03F01B
S31500002F681F0341680978032910D913F0100F0CBF05
S31500002F780123002304B913B1A4450ED86BB102236B
S31500002F8853600CE06B6BC3F30443EAE703F00C03EE
S31500002F98042B14BF00230123ECE70323536030BC42
S31500002FA870474C1E1460FAE70B0143EA811343F499
S31500002FB880730278022A04D0032A05D031B1092089
S31500002FC800E00920184370470320FBE70620F9E7CD
S31500002FD810B44368DC6900230BE04FF0030C01E0F2
S31500002FE84FF0040C01390CF1120C02EB8C02516003
S31500002FF80133052B10D894F84820DA4012F0010F57
S31500003008F6D003F10C0254F822108268032BE7D09D
S31500003018042BE2D09C46E5E75DF8044B70470000B8
S315000030282DE9F04182B004460E46CD69EFF31080D3
S31500003038012383F31088694B1A690F7C4FF000410E
S31500003048F94022EA01021A611B6980F31088A36815
S315000030584FF425421A60A2680023D362A268D3639C
S31500003068A2689364337ADB057768013F3278032ACE
S3150000307800F0A180A268D3622046FFF741FFA3684B
S31500003088AA69DA61A368EA691A62A3689F66A368EF
S315000030985F66D5F850804FF0FF3300930023019305
S315000030A833781BB973685B08013B00933378012BAF
S315000030B800F28480A268009B5365A2689365327803
S315000030C8032A03D9A268D365A2681366019B1F0663
S315000030D847EA03472B6D7BB92B782BB169783046C5
S315000030E8FFF762FF48EA0008AB782BB1E97830466B
S315000030F8FFF75AFF48EA00482046FFF769FFA2682B
S3150000310800239363A268C2F888302B6D3BB995F803
S31500003118203048EA433395F8218043EA487895F801
S315000031284830002B51D14FF4AA02A3681A643378A9
S31500003138012B4DD0A368C3F83480A36847F0030277
S315000031481A63A36847F001071F63A368E268DA6099
S315000031582246717C96F91200FFF7E0FE224695F8A2
S31500003168221095F92800FFF7D9FE224695F8231074
S3150000317895F92900FFF7D2FE224695F8241095F90D
S315000031882A00FFF7CBFE224695F8251095F92B0065
S31500003198FFF7C4FE224695F8261095F92C00FFF78E
S315000031A8BDFE224695F8271095F92D00FFF7B6FEC5
S315000031B802B0BDE8F08143F480335BE700236A463A
S315000031C8F1682046FFF7BEFE74E74FF4A002ACE7AD
S315000031D8A2680023D364A2681365ABE700400840E1
S315000031E838B504460D460A7C01239340C360FFF7B1
S315000031F86FFE29462046FFF713FF024B2360002087
S3150000320838BD00BF5450470030B585B004468C46DB
S3150000321815468369B3B193E807000DF1100E0EE960
S31500003228070083F804C09D60E2691A60626918465F
S315000032389047A36923B104AA12E9070083E80700A7
S3150000324805B030BD01ABECE738B5EFF30380C0F34A
S315000032580800103840B22D4B00F1C00253F8221076
S3150000326821F4803143F8221053F82230284B53F8C2
S3150000327820406368DD691B78012B07D0636923B199
S31500003288002211462046FFF7BFFF38BDA368E26853
S315000032989A60A26800239364A268D364A26813653F
S315000032A8FFF7E0FD95F8483013F0010F03D095F9C4
S315000032B8280000281BDA95F8483013F0020F03D0CF
S315000032C895F92900002815DA95F92A00002814DA54
S315000032D895F92B00002813DA95F92C00002812DA44
S315000032E895F92D000028C9DBFFF7BCFDC6E7FFF7F7
S315000032F8B9FDE0E7FFF7B6FDE6E7FFF7B3FDE7E759
S31500003308FFF7B0FDE8E7FFF7ADFDE9E7006000402D
S31500003318980B00200B4B00F1C00253F8221021F441
S31500003328803143F8221053F82230BFF35F8F00F044
S315000033381F024009012393406030034A42F82030B7
S31500003348704700BF0060004000E100E010B5044689
S31500003358FFF7E0FF04F01F02640901239340024AC5
S3150000336842F8243010BD00BF00E100E0054BB3F879
S31500003378843003F0810313B90B70002070470123D2
S315000033880B70FAE700E07F4006207047062070477A
S315000033980620704706207047062070470B46064AE7
S315000033A892E8030083E80300044A083392E803001E
S315000033B883E80300002070476C5400005454000052
S315000033C800230360436893F91130002B0CDB03F0EC
S315000033D81F015B0901228A402033104941F8232046
S315000033E8BFF34F8FBFF36F8F0D4B00221A764368DA
S315000033F893F9133093420CDB03F01F015B0901229A
S315000034088A402033054941F82320BFF34F8FBFF385
S315000034186F8F0020024B1875704700BF00E100E06F
S3150000342800E07F4001648264436400207047062000
S315000034387047062070470620704706207047000030
S3150000344830B482B014467AB9436893F9113003F060
S315000034581F055B090122AA4020332A4D45F823207F
S31500003468BFF34F8FBFF36F8F426B274B1A63A3F5DA
S31500003478F033E8221A704FEA510CC1F3470119706C
S31500003488002161451FD2036B1A88204B1A800369F5
S3150000349801931D4BD3F8803013F4806F08D0019B3D
S315000034A85A1E0192002BF4D1142002B030BC70478A
S315000034B8036B02330363436B02334363836B013B42
S315000034C883630131DDE7114BD0221A7064B9436872
S315000034D893F9113003F01F015B0901228A4009495B
S315000034E841F823202046E0E7074BD3F8803013F451
S315000034F8004F04D10CB1013CF6E71420D5E70020B3
S31500003508D3E700BF00E100E000E07F4000007E4016
S3150000351810B4002380F83C30354C226AC2F302719D
S31500003528C2F30262334B1B6803FA02F2CA40216AED
S31500003538C1F302618B40CB40012184F816142E4951
S315000035488A4252D902F5742202F23F222B49A1FB84
S315000035580242920C03F5742303F23F23A1FB0313E3
S315000035689B0C02F5F0522649A1F8E42043F6B8511F
S3150000357803FB01F1234AA2FB01418908816040F659
S31500003588D86103FB01F1A2FB01418908C16059001A
S31500003598A2FB014189080161542103FB01F1A2FB49
S315000035A80141890841614FF4FA2103FB01F1A2FBAD
S315000035B801418908816144F2506103FB01F1A2FBD4
S315000035C8014189084162104903FB01F1A2FB01414F
S315000035D8890801620D4901FB03F3A2FB03239B083B
S315000035E8C36100205DF8044B70474FF4FB70F9E7A0
S315000035F800E00140E00B0020FF083D0083DE1B438E
S3150000360800E07F40ABAAAAAA80DE0F00A0F703005D
S315000036182DE9F041044641600B785BB91A4B00224C
S315000036281A761A752046FFF773FF08B9174B2360F9
S31500003638BDE8F0810D464B680364CB6883640023BC
S315000036484364DFF84480012388F8183091F91100A3
S315000036580B7C1B01DBB20E4E321882F800330D4F7D
S3150000366847F82040FFF772FE982388F8143095F93A
S315000036781300AB7C1B01DBB2064486F8003347F81F
S315000036882040FFF763FECDE700E07F404E45504FF0
S3150000369800E100E0980B002008B5FFF739FF08BDE8
S315000036A810B4124B046B1C63A3F5F0334FF0200CD7
S315000036B883F800C04FF0D00C83F800C0036B0B44AE
S315000036C80363836B013B836310461AB95DF8044BA9
S315000036D870470138054BD3F8803013F4004F03D1F7
S315000036E80028F6D11420F1E70020EFE700E07F403C
S315000036F81D4BB3F8841089B24FF42A42A3F88420EC
S315000037084FF49642002000E0013A174BB3F8843094
S315000037189BB223B1002AF7D14FF4FA70F4E70129D6
S3150000372802D0802918D070470F4B4DF60112A3F826
S3150000373844200E4B0122A3F804210C4BB3F80431A4
S315000037489BB2002BF9D10123084AA2F80031A2F551
S31500003758A832936013607047054B01225A60044BE8
S315000037685B68002BFBD1DEE700E07F4000C001402C
S315000037780070004082B04FF4964301930E4BB3227B
S315000037881A7002E0019B013B01930C4BD3F8803081
S3150000379813F4004F05D1019B002BF3D1142002B07E
S315000037A87047064B1B7C13F0100F01D10020F6E77B
S315000037B840F2F510F3E700BF00007E4000E07F40CE
S315000037C810B503461446134A127C12F0100F0CD19A
S315000037D80020104AD2F880200A4200D10446A3B934
S315000037E8ACB1FFF7C7FF204610BD0A4AD2F88020C1
S315000037F812F4804F02D140F2F510EAE7054A107C30
S315000038080020107440F2F510E3E71C46E9E720466D
S31500003818EAE700BF00E07F4082B04FF49643019389
S315000038280E4B50221A7002E0019B013B01930C4B90
S31500003838D3F8803013F4004F05D1019B002BF3D148
S31500003848142002B07047064B1B7C13F0100F01D1F1
S315000038580020F6E740F2F510F3E700BF00007E40CF
S3150000386800E07F4010B584B004468C46436CBBB17B
S3150000387893E807000DF1100E0EE9070083F800C063
S3150000388800225A60A26C9A60226C18469047636CB4
S3150000389823B104AA12E9070083E8070004B010BDA3
S315000038A801ABEBE710B582B04FF49643019343683A
S315000038B81A782AB9114B4AF68022A3F884200DE01B
S315000038C8044693F91100FFF741FD636893F9130065
S315000038D8FFF73CFDEEE7019B013B0193074BB3F86D
S315000038E884309BB2802B05D0019B002BF3D14FF47B
S315000038F8FA7000E0002002B010BD00BF00E07F4073
S3150000390870B50546FFF7CEFFE0B96B681B78D3B1F3
S31500003918012385F83C300646324604212846FFF73F
S315000039288FFD6B681B786BB918224FF48051FFF72F
S3150000393847FF0446AB6B0BB10028EDD0FFF7D8FE66
S3150000394804B1204670BDEE68E6E708B55B088363F8
S3150000395801634263002380F83C30FFF7D1FF08BDBE
S3150000396870B5054601638263FFF79CFF18BB0646E0
S315000039786B681B78EBB1022385F83C300F4B0122AC
S31500003988A3F8E020324640212846FFF789FE6B68F7
S315000039981B786BB919224FF40051FFF711FF044643
S315000039A8AB6B0BB10028EDD0FFF7A2FE04B12046A1
S315000039B870BD6E6AE2E74FF4FA70F9E700E07F40FF
S315000039C808B54FF0000C80F83CC021F03F01FFF726
S315000039D8C7FF08BDF8B507460C4616461D46FFF74D
S315000039E861FFD0B91D4B002283F8D0201C633444F4
S315000039F8013C5C63A3F5F03371221A70D0221A7069
S31500003A087B681B7823B97969B60806FB011606E0B8
S31500003A18032387F83C3002232B70F8BD013E0F497B
S31500003A28D1F8801011F4004F02D1002EF6D11420DF
S31500003A384FF4FC720021FFF7C3FE0446074B93F8C8
S31500003A48D430DBB2012B07D000232B70FFF750FED2
S31500003A58002CE2D02046E0E72B70F7E700E07F4035
S31500003A6808B5FFF7B7FF08BD70B5044643681A786E
S31500003A78EAB193F9113003F01F015B09012202FA3A
S31500003A8801F11748203340F82310BFF34F8FBFF3D7
S31500003A986F8F636893F9133003F01F015B098A403F
S31500003AA8203340F82320BFF34F8FBFF36F8F0D4BA2
S31500003AB8B3F884309BB27BB1FFF75CFE0646FFF78E
S31500003AC8ABFE054606B13546FFF712FE05B1284698
S31500003AD8002384F83C3070BD2046FFF7E3FEEBE791
S31500003AE800E100E000E07F4008B5FFF7BDFF08BD34
S31500003AF870B5EFF30383C3F30803103B5CB2184BAE
S31500003B0853F82450174A137CD2F8802013F0080F74
S31500003B180BD1D9B211F0800F1BD111F0100F1AD0AA
S31500003B2812F4405F19D0072600E004262846FFF75E
S31500003B389BFF0D4A04F1C00352F8231021F480318B
S31500003B4842F8231052F8233031462846FFF78AFEFA
S31500003B5870BD0526EAE70726E8E70626E6E700BF7A
S31500003B68980B002000E07F400060004038B5EFF376
S31500003B780383C3F30803103B5BB21F4A52F8234082
S31500003B881E4AC03352F8231021F4803142F823101C
S31500003B9852F8233094F83C50012D12D0022D1ED035
S31500003BA8174B93F8D430DBB2012B22D00225FFF74E
S31500003BB89FFD002384F83C3029462046FFF752FE35
S31500003BC838BDA36B002BF2D0002204212046FFF754
S31500003BD837FC0028F4D02046FFF746FFF0E7A36B32
S31500003BE80BB90025E3E7002240212046FFF758FDE0
S31500003BF8E6E70325DBE700BF980B002000600040DE
S31500003C0800E07F400B4B00F1C00253F8221021F46C
S31500003C18803143F8221053F82230BFF35F8F00F04B
S31500003C281F024009012393406030034A42F82030BE
S31500003C38704700BF0060004000E100E010B5044690
S31500003C48FFF7E0FF04F01F02640901239340024ACC
S31500003C5842F8243010BD00BF00E100E0037B53B1F9
S31500003C6881680C310B7803F00102C3F340039A42D2
S31500003C78F8D10020704781680831F3E710B4037B58
S31500003C888BB183680C33C8690478224690F804C05F
S31500003C98C07800F007004CB9097AB1B181F0020189
S31500003CA80A01002105E083680833ECE7502C0ED0A2
S31500003CB8097A024383F804C000209871D2B25A7078
S31500003CC8CAB29A705DF8044B70470021F1E70021EB
S31500003CD8EFE70000016143681A7C064B43F822109F
S31500003CE80139037B13B1836819607047836889B209
S31500003CF8198070473C0B0020F8B504460D46416014
S31500003D08002303730B7C1B0203F1804303F568232E
S31500003D18836003F10802EFF3108C012181F3108808
S31500003D28297C03292ED8244F3E6803292CD8C1F1B3
S31500003D38030001218140C9430E403E60297C0329C6
S31500003D4828D81D4909688CF3108800211972137840
S31500003D5813F0020FFBD10023937029462046FFF784
S31500003D688DFF69682046FFF7B5FF95F91200002810
S31500003D7812DA6B696361AB69E3610020A0610F4BDE
S31500003D882360F8BD0E4FCFE7C1F113000121814032
S31500003D98C943D1E70A49D5E76B7C1B01DBB200F1C1
S31500003DA8604202F5614282F80033064B43F8204030
S31500003DB8FFF744FFDDE700BF0C40084054474100C9
S31500003DC810400840980B002070B50446FFF746FFE0
S31500003DD8064648B9237B4BB1A5680C3563681B7842
S31500003DE8012B06D0F1232B70304670BDA568083527
S31500003DF8F4E721692046FFF76DFFF3E770B584B055
S31500003E08EFF30383C3F30803103B5BB2224A03F1C3
S31500003E18C00152F8210020F4803042F8210052F8FF
S31500003E2821201E4A52F82340237B53B3A5680C353C
S31500003E382A78D2B2134661680978012924D06269C2
S31500003E48D2B1A66936B396E807000DF1100C0CE955
S31500003E58070013F0200F01D000233371E3693360A4
S31500003E68636930469847A36923B104AA12E9070093
S31500003E7883E807002B78DBB203F00F032B7004B03E
S31500003E8870BDA5680835D3E7F4232B7002F0F0035C
S31500003E982B70D4E701AEDCE700600040980B0020E9
S31500003EA80B4B00F1C00253F8221021F4803143F87D
S31500003EB8221053F82230BFF35F8F00F01F0240092B
S31500003EC8012393406030034A42F82030704700BF10
S31500003ED80060004000E100E010B50446FFF7E0FF8F
S31500003EE804F01F02640901239340024A42F8243071
S31500003EF810BD00BF00E100E00368828A1A80002036
S31500003F08704703681B88C3F3C0330B7000207047E3
S31500003F180368103133F811301380002070470620EB
S31500003F28704700002DE9F0414C698B785B0343F438
S31500003F381073A578002D4BD14FF480721A433F2D8C
S31500003F4848D04FF4007313432279002A44D043F033
S31500003F5880039AB28282A3781B0203F47C53E57825
S31500003F6805F03F0543EA050ECD780B79DB0343EAF6
S31500003F784503657843EA45132678EFF310884FF032
S31500003F88010C8CF31088174DEF680988C1F11001F0
S31500003F980CFA01FC27EA0C07EF60E96888F3108839
S31500003FA8016822F400725204520C0A8001681FFA52
S31500003FB88EF20A8202689BB2D38103681E73A379C4
S31500003FC8012B00D00023026882F8D030BDE8F081CA
S31500003FD80022B3E70023B6E73F2DBAD143F40043E6
S31500003FE8B7E700BF00400840104B1A6AC2F3021137
S31500003FF8C2F302620E4B1B689340CB400D4AA2FBEC
S3150000400803239B0941F2360202FB03F302F18642BF
S3150000401802F5DE1202F64D62A2FB03239B0C013366
S31500004028062B00D807230360704700BF00E0014055
S31500004038E00B0020D34D621030B583B005460C4620
S315000040480023019301A8FFF7CFFF226863681A438C
S3150000405812F0005320D0EFF31080012383F3108869
S315000040681D4BD96821F48001D960DB6880F310887C
S315000040781A4B902119702B689DF8041083F8DE10EE
S31500004088236813F0005F20D04FF48073A16811F005
S31500004098005F01D043F0010312F0804F10D02A6868
S315000040A89DF8041082F8DF10226812F0804F0FD0B6
S315000040B843F40073A26812F0804F01D043F0020364
S315000040C82A689BB2538203B030BD4FF48063DDE7A4
S315000040D843F40063EEE700BF0040084000300F409D
S315000040E8002800DA704708B50901C9B200F1604333
S315000040F803F5614383F80013024B43F82020FFF7CA
S31500004108EBFE08BD980B0020F8B504460D464E692F
S315000041184160CB6883610B6903620027C7610B881E
S315000041285B0203F1804303F5B8130360FFF7FAFE59
S315000041382246697A95F90600FFF7D2FF2246A97A40
S3150000414895F90700FFF7CCFF2246717A96F9070022
S31500004158FFF7C6FF2246B17A96F90800FFF7C0FFB7
S315000041682761024BA3603846F8BD00BF434441525D
S3150000417802464FF0FF30002303E00130012383405D
S315000041881340002BF9D0704770B588B005468C46A9
S31500004198C66916B3EE4634460FCCAEE80F0094E86F
S315000041A80F008EE80F00B646BCE80F00AEE80F0019
S315000041B89CE80F008EE80F00AB6930469847EB691C
S315000041C84BB19C46EE46BEE80F00ACE80F009EE8F1
S315000041D80F008CE80F0008B070BD0E46ECE7000033
S315000041E810B588B00246EFF30383C3F30803103B08
S315000041F85BB2124951F82300EFF30383C3F30803B4
S31500004208103B5BB20E49C03351F8234024F4803486
S3150000421841F8234051F823308DF8022043681B8863
S31500004228ADF8003000238DF80830036A01938369DE
S3150000423813B16946FFF7A8FF08B010BD980B002018
S31500004248006000402DE9F84304460D460B6823F04C
S31500004258C04642685769D1F8048028F0C04CD1F8A6
S3150000426808E02EF0C0499BB20268938003681FFAE3
S3150000427888F8A3F8148003681FFA8EFEA3F808E0EE
S3150000428803684FEA164EA3F806E003684FEA1C4C8B
S31500004298A3F816C003684FEA19425A81FFF7CCFE05
S315000042A8EB68002B66D01A8912F4006F32D02168A9
S315000042B8A1F8902021685889A1F89C00216898895E
S315000042C8A1F89E00196820681FFA81FCA0F894C01E
S315000042D84FEA114C20682CF4C04C1FFA8CFCA0F84D
S315000042E896C02068C1F3417180F892105968206819
S315000042F81FFA81FCA0F898C04FEA114C20682CF4EC
S31500004308C04C1FFA8CFCA0F89AC02068C1F3417112
S3150000431880F89310198911F4007F0FD0997C93F8CF
S3150000432813C0206841EA0C0180F8A6102168D889D4
S31500004338A1F8A80021681B8AA1F8AA302368A3F867
S31500004348902023682A8AA3F880203B7973B12268D3
S3150000435813889BB223F01F0376B1B6FA86F69B1B29
S315000043681F339BB21380A28A1343A382034BE360D5
S31500004378BDE8F8830022E1E72026F0E743444152EE
S3150000438838B504460D46FFF75DFF2B68236100200C
S3150000439838BD000070B505460C4606698EB34FEA6F
S315000043A876763046FFF7E4FE2B6800F10D0203EB44
S315000043B8420323601EB3B6FA86F3C3F11F031B1A22
S315000043C801336360012323726B681B8803EB430385
S315000043D85B009BB203F5B07363816B681B8804337B
S315000043E85B0063724FF0FF33E360074BD3F87C3111
S315000043F89BB2E3604FF47A63A382002070BD20234A
S31500004408DBE700234B60DDE700B07F4008B50020FE
S31500004418FFF7E6FE08BD0000064B93F826101A6A59
S31500004428C2F30262044B53F82130D340034A1360A7
S31500004438704700BF00E0014020040020E00B002088
S3150000444808B5084B084A1A60084A5A604FF40042F1
S315000044589A600749D9601A61064A5A61FFF7DCFF74
S3150000446808BD00BF20040020002D310100127A008B
S3150000447800366E0100C2EB0B08B50A4B032283F81F
S315000044881C2103F50053084A1A62052283F82620E0
S31500004498FFF7C2FF054BF1221A7301221A72F022A6
S315000044A81A7308BD00C001402112012000200040F7
S315000044B87047000008B5144B93F880342BB9124B9B
S315000044C893F8813413F0030F18D00F4B93F8803408
S315000044D833B10D4B002283F8812483F8802408BD6C
S315000044E80121094B83F88014C82000F0ADF8064B6B
S315000044F893F88034DBB2012BF9D1EAE74FF47A70EE
S31500004508FFF7D6FFEBE700BF00E0014038B5224BC6
S315000045184AF20352A3F8FE23A3F500530122A3F897
S3150000452804211E4BB3F804319BB2002BF9D10123A9
S315000045381A4AA2F80031A2F5A83293601360FFF771
S315000045487FFF154C002584F81354092384F8A230FC
S31500004558FFF7B0FF84F832500F4B93F83C3013F056
S31500004568080FF9D00C4B43F202121A85002283F881
S315000045782A20094B93F83C3013F0200FF9D0FFF7A7
S315000045887BFF054B012283F8302083F852204FF435
S315000045982542A3F8FE2338BD00E0014000C00140D3
S315000045A838B5244C002584F828500121C82000F08D
S315000045B84BF884F824501F4B93F82430002BFAD17B
S315000045C81C4A92F8243043F0020382F82430194B2F
S315000045D893F8243013F0020FF9D1164B002283F812
S315000045E82220144B93F8223003F0FF01002BF8D158
S315000045F812E008460F4A01F1200C12F81C3023F08D
S31500004608800302F81C3000F120030A4A12F813301E
S31500004618DB09F8D10131C9B20229EAD9012000F033
S3150000462831F9054B002283F8BB24012000F0F6F887
S3150000463838BD00BF0030084000E00140A0F101008D
S315000046480028FBD17047000008B500FB01F12F4B8D
S315000046581B682F4A934219D303F5741303F6FF0315
S3150000466802F1854202F5071202F68342A2FB0323F2
S315000046781B0DA1FB03014FF0FF3383424FF00003EC
S315000046888B413FD308B1FFF7D9FF08BD2148B0FBDE
S31500004698F3F0CA0E4B015B1A62F10002920042EA7D
S315000046A893729B005B1842F10002D20042EA5372F1
S315000046B8DB004FF0FF3C9C454FF0000C7CEB020CF6
S315000046C803D3B3FBF0F39808DCE78000B1FBF0F105
S315000046D8CA0E4B015B1A62F10002920042EA93721B
S315000046E89B005B1842F10002D20042EA5372D800DE
S315000046F84FF0FF3383424FF000039341C2D24FF08D
S31500004708FF30C0E74FF0FF30BDE700BFE00B0020E9
S3150000471800127A0000CA9A3B08B5034B53F82030BA
S3150000472803B1984708BD00BF540B002038B50D4BA0
S31500004738B3F82021B3F84051ADB21540002401E08A
S315000047480134E4B20F2C08D825FA04F313F0010F4C
S31500004758F6D02046FFF7E0FFF2E7024BA3F8305108
S3150000476838BD00BF0060004000B585B0032000F0EA
S3150000477889F8254B6FF0FF029A644FF0FF330193D7
S3150000478802930393002300E001330E2B14D81F4A2B
S3150000479832F81320002AF7D05A0903F01F0C04A98F
S315000047A801EB820252F80C1C012000FA0CF021EAF7
S315000047B8000142F80C1CE7E700230DE004AA02EB0F
S315000047C8830252F80C2C124941F8232003F1A00069
S315000047D8104941F820200133022BEFD9032000F0BD
S315000047E81DF8002300E001330E2B0AD8074A32F8D9
S315000047F81320002AF7D003F1C001074840F821200A
S31500004808F1E705B05DF804FB00800040E0530000C6
S315000048187080004000E100E000600040EFF3108285
S31500004828012383F31088144B33F810309BB23BB145
S31500004838114931F810309BB2013B9BB221F8103078
S315000048480D4B33F810309BB293B910B40B49B1F83D
S31500004858FE339BB20A4C34F8100043F4254323EA8E
S315000048680003A1F8FE3382F310885DF8044B704705
S3150000487882F31088704700BFD40B002000E0014087
S315000048886C55000010B4EFF31081012383F31088F0
S315000048980F4B33F810309BB263B90E4AB2F8FE33A9
S315000048A89BB20D4C34F810C043EA0C0343F425437D
S315000048B8A2F8FE33064A32F810309BB201339BB297
S315000048C822F8103081F310885DF8044B704700BF5A
S315000048D8D40B002000E001406C55000000BE704774
S315000048E808B500F037F8FCF70DFCFEE738B50546C5
S315000048F8002400E00134164B1B68A34210D9144B60
S315000049085A6804EB4403980002EB8303597AA942D8
S31500004918F0D110585A68121A002100F07AF8E9E71F
S31500004928002400E001340A4B9B68A3420ED9084BC9
S31500004938DA68200102EB0413597BA942F2D1105818
S315000049485A68121A996800F06CF8EBE738BD00BF90
S315000049589454000038B5274B4FF47002C3F88820EA
S31500004968254A9A600020FCF77FF9FFF7CFFD012062
S31500004978FCF77AF9214B83F30A880020FFF7B6FF84
S31500004988FFF74AFDFFF70CFE0320FFF77BFF002326
S3150000499807E003F108011A4A4FF6FF7022F81100E2
S315000049A80133082BF5D90320FFF738FF0320FFF75B
S315000049B869FF144B00245C609C60DC601C6103206A
S315000049C8FFF72CFF0220FCF74FF90120FFF78EFFB7
S315000049D80D4D0E4BED1AAD1004E00C4B53F8243078
S315000049E898470134AC42F8DBFFF7BEFE002000F022
S315000049F80FF838BD00ED00E00000000020000020A0
S31500004A08000D084000000E40D4550000D0550000A7
S31500004A18704702440346934200D1704703F8011BCE
S31500004A28F9E70A44431E914200D1704710B511F8C0
S31500004A38014B914203F8014FF9D110BD5465726DCF
S31500004A48696E616C00000000284E554C4C29000028
S31500004A580D0A202A2A20525F4144435F4F70656E33
S31500004A68204641494C4544202A2A200D0A000000C8
S31500004A785B4552525D20496E2046756E6374696FB8
S31500004A886E3A20257328292C202573000D0A5265B5
S31500004A987475726E6564204572726F7220436F6416
S31500004AA8653A203078257820200D0A000D0A202A3C
S31500004AB82A20525F4144435F5363616E4366672011
S31500004AC84641494C4544202A2A200D0A0000000088
S31500004AD80D0A202A2A20525F4144435F5363616EC0
S31500004AE85374617274204641494C4544202A2A2051
S31500004AF80D0A00000D0A202A2A20525F4144435F0E
S31500004B0843616C696272617465204641494C45444B
S31500004B18202A2A200D0A00002A2A20525F414443EF
S31500004B285F537461747573476574204150492066F4
S31500004B3861696C6564202A2A200D0A000D0A202A5C
S31500004B482A20525F4147545F4F70656E204641499F
S31500004B584C4544202A2A200D0A0000000D0A202A66
S31500004B682A20525F4147545F537461727420415042
S31500004B7849206661696C6564202A2A200D0A0000AE
S31500004B880D0A202A2A20525F4750545F54696D65E2
S31500004B98724F70656E204641494C4544202A2A20AA
S31500004BA80D0A00000D0A202A2A20525F4750545F3A
S31500004BB8537461727420415049206661696C65645A
S31500004BC8202A2A200D0A00000D0A202A2A20525FD0
S31500004BD84750545F53746F7020415049206661698D
S31500004BE86C6564202A2A200D0A0000000D0A2A2A6C
S31500004BF8525F4C504D5F4C6F77506F7765724D6FB3
S31500004C086465456E74657220415049204641494C99
S31500004C1845442A2A0D0A00002A2A20525F49494398
S31500004C285F4D41535445525F4F70656E2041504960
S31500004C38206661696C6564202A2A200D0A00000036
S31500004C482A2A20525F4949435F4D41535445525FD2
S31500004C58577269746520415049206661696C6564BC
S31500004C68202A2A200D0A00002A2A20525F49494391
S31500004C785F4D41535445525F526561642041504926
S31500004C88206661696C6564202A2A200D0A000000E6
S31500004C980D0A2A2A525F4943555F45787465726E34
S31500004CA8616C4972714F70656E20415049204641CA
S31500004CB8494C45442A2A0D0A000000000D0A2A2AF2
S31500004CC8525F4943555F45787465726E616C4972E7
S31500004CD871456E61626C6520415049204641494CD8
S31500004CE845442A2A0D0A00000D0A202A2A20525F66
S31500004CF85343495F554152545F4F70656E20464194
S31500004D08494C4544202A2A200D0A00000D0A202A6B
S31500004D182A20525F5343495F554152545F5772697F
S31500004D287465204641494C4544202A2A200D0A002C
S31500004D380D0A2A2A20524D5F5645455F464C415377
S31500004D48485F4F70656E20415049204641494C45A1
S31500004D5844202A2A0D0A00000D0A2A2A20524D5FED
S31500004D685645455F464C4153485F466F726D6174C0
S31500004D7820415049204641494C4544202A2A0D0ADB
S31500004D88000000000D0A2A2A20524D5F5645455F4D
S31500004D98464C4153485F5374617475734765742074
S31500004DA8415049204641494C4544202A2A0D0A00CB
S31500004DB80D0A2A2A20524D5F5645455F464C4153F7
S31500004DC8485F5265636F726457726974652046411D
S31500004DD8494C4544202A2A0D0A0000000D0A2A2AB1
S31500004DE820524D5F5645455F464C4153485F5265D4
S31500004DF8636F726450747247657420415049204647
S31500004E0841494C4544202A2A0D0A00000D0A2A2A3F
S31500004E182042756666657220746F6F20736D616CCB
S31500004E286C202A2A0D0A00000000000000005454D5
S31500004E38522052454747455300000000303132336F
S31500004E483435363738394142434445466164635FF1
S31500004E5863616C6962726174650000006164635F16
S31500004E687363616E5F726561640000006164635F0D
S31500004E78696E69740000000073746172745F61671B
S31500004E88745F74696D657200696E69745F616774D1
S31500004E985F74696D6572000073746F705F67707414
S31500004EA85F74696D6572000073746172745F677010
S31500004EB8745F74696D657200696E69745F67707492
S31500004EC85F74696D6572000068616C5F656E747207
S31500004ED879000000726561645F73656E736F725F57
S31500004EE86461746100000000696E69745F73656EC1
S31500004EF8736F72006963755F73315F656E61626CAB
S31500004F08650000006963755F73315F6F70656E00D9
S31500004F186963755F73325F656E61626C6500000078
S31500004F286963755F73325F6F70656E007561727461
S31500004F385F77726974650000756172745F696E697E
S31500004F48740000007665655F726561645F6F706501
S31500004F58726174696F6E00007665655F7772697451
S31500004F68655F6F7065726174696F6E007665655FFF
S31500004F78666F726D61745F6F7065726174696F6E6A
S31500004F88000000007665655F666C6173685F696E30
S31500004F98697400000A0C020103010000450E0000B6
S31500004FA800000000B04F0000000000000B020400E3
S31500004FB803010000D10E000000000000C84F0000E9
S31500004FC800000000000000080200000000200000A9
S31500004FD80000000002000000700900200111000016
S31500004FE800000000F04F0000F44F0000140A0020F3
S31500004FF80050000008540000010000004D18000091
S3150000500800000000780900200800080100000000E0
S3150000501800A0000003000000005000000104030087
S3150000502800000000000000003450000040000001AD
S31500005038000000010000000002000000000000005F
S31500005048000800100000000000000000000000003A
S315000050580000000000010100000000000000000040
S315000050680000000000000000000000000000000032
S3150000507801000000A086010018000000010C0506CA
S31500005088070800000000000000000000AD0D000049
S3150000509800000000A05000000100031C1C000000D6
S315000050A800000000000001000A0000000080000067
S315000050B806040900390A000000000000C850000074
S315000050C800000000000000000000000000000000D2
S315000050D800000000000000000000000000000000C2
S315000050E80000FFFFFFFFFFFFDFDFDFDFDFDF00007E
S315000050F800000000000000000000000000000000A2
S315000051080000000000000000000000000000000091
S315000051180000000000000000000200000C0A0C0B52
S315000051280C0C0C0D0000000000000000750F0000BC
S3150000513800000000405100000001000008000020A7
S315000051480F00FFFF00000000FFFF00000000002026
S315000051580000000000000000000000000000001829
S3150000516800000000000F0EDF000DFF00F108000030
S31500005178000000008051000000013F3F000000DFF2
S31500005188DFFFFF0049000000985100000000000002
S315000051980080000000000000008000000100000000
S315000051A8004000000200000000800000030000002C
S315000051B80400000004000000004000000500000094
S315000051C810400000060000000080000007000000F4
S315000051D8104000000800000004000000090000005C
S315000051E8008000000E000000008000000F00000094
S315000051F8400C010400010000400C010401010000FC
S31500005208000001000801000000000100090100007B
S31500005218000001000A010000040000000B01000064
S31500005228040000000F010000000001060202000051
S315000052380000010603020000000001060402000047
S31500005248000001060502000000000100000300003E
S31500005258000001060103000004000000030300002B
S315000052680400000004030000000C011105030000FF
S31500005278000C011106030000000C011107030000D1
S31500005288000C011108030000000C011109030000BD
S31500005298000C01110A030000040000000B030000C3
S315000052A8040000000C030000040000000D030000C9
S315000052B80400000000040000000C011701040000AF
S315000052C8000C011702040000050C0000030400008E
S315000052D80400000004040000000C01170504000087
S315000052E8000C011706040000000001130704000063
S315000052F80000010308040000104000000904000033
S31500005308000001060A040000000001060B04000064
S31500005318000001060C040000000001060D04000050
S31500005328104000000E040000040000000F040000F6
S31500005338000001130005000000000113010500002C
S3150000534840000104050500004000010406050000B0
S31500005358400401070B050000400401070C05000086
S31500005368040000000B060000040000000C06000004
S31500005378000001050D060000000001050E060000EC
S31500005388000C011700070000000C011701070000B8
S31500005398000C011702070000000C011703070000A4
S315000053A8000C011704070000000C01170507000090
S315000053B804000000080700000400000009070000B8
S315000053C8040000000A070000040000000C070000A3
S315000053D8040000000D070000310030000B004300F8
S315000053E80C00780079007A007B00FC0080018101BE
S315000053F88201830160010000020403040404000022
S315000054081936000053390000C9390000693A00000E
S31500005418A5330000C933000075330000953300003A
S315000054289933000091330000F13A0000A1360000DC
S315000054389D330000A13300002D34000037340000EE
S315000054483B3400003F3400004334000001000000F4
S315000054585C54000000000008FF1F00084000000020
S315000054680400000002000000745400000000000060
S31500005478FFFF00000020000080000000000001007F
S31500005488FFFF0F00008000008000000004000000FD
S315000054983C55000008000000BC5400000200000053
S315000054A8AC540000000000680000006820000020DE
S315000054B8200000200000006800000068000000606E
S315000054C800010C0800000068000000680000007079
S315000054D800010908000000680000006800000008D4
S315000054E80001020800000068000000687C00000057
S315000054F800010108000000200000002000000060F4
