S00F000070726F6A6563742E737265631E
S3150000000000040020B927000005260000B5270000DF
S31500000010B5270000B5270000B5270000B52700006A
S31500000020000000000000000000000000B5270000EE
S31500000030B527000000000000B5270000B527000026
S3150000004059220000DD2100008919000089190000ED
S315000000500348044B834202D0034B03B11847704751
S3150000006084A2000184A2000100000000064B07499B
S31500000070C91A891048BF0131491003D0044B0BB18E
S3150000008001481847704700BF84A2000184A20001FE
S315000000900000000010B5064C237843B9FFF7D8FFDF
S315000000A0044B13B10448AFF300800123237010BD45
S315000000B01C0400200000000084A2000108B5054BC6
S315000000C01BB105490548AFF30080BDE80840FFF7BE
S315000000D0CDBF00BF000000002004002084A2000164
S315000000E00369C268934204D881688A1A1344581E69
S315000000F07047981A013870472DE9F8430446884638
S315000001001646C5688768A7EB0509914509D9406871
S31500000110284402F0F2FBBFF35F8F3544E560BDE88B
S31500000120F88340684A46284402F0E7FBED1B354455
S315000001302A4608EB0901606802F0DFFBBFF35F8F18
S31500000140E560ECE72DE9F843064688461746C5689C
S315000001504FF000091AE05B1B5A1EB3685C1B944201
S3150000016028BF1446BC4228BF3C467068224641461A
S31500000170284402F0C2FBA144A0443F1B2544B368B7
S31500000180AB420BD0BFF35F8FF5604FB133699D4231
S31500000190E1D3B2685B1B1A44013ADEE70025F1E7BA
S315000001A04846BDE8F883000010B5154CA82200218A
S315000001B0204602F09AFB032323616361114AA26180
S315000001C0114BE3614FF4806323620023A3626362F1
S315000001D0E36222660D4A62661022A2662367E36620
S315000001E06367BFF35F8F06E0C3F10F0208498956C4
S315000001F0034AD15401330F2BF6D9BFF35F8F10BDDD
S315000002004808002014290000480400203804002073
S315000002106C2A0000F8B50F461646441C04EB44044D
S31500000220164B03EBC40400EB400003EBC003DD6A8E
S31500000230012D0ED0022D1AD0F5B92046FFF750FF3A
S31500000240864212D8324639462046FFF755FF3546D4
S315000002500BE02046FFF744FF3546864228BF054699
S315000002602A4639462046FFF747FF2846F8BD20466E
S31500000270FFF768FF0546F8E70025F6E7480800207F
S31500000280F8B504460D4616460A4B1B785BB2532B4F
S315000002900DD1EFF311874FF0200181F3118832461B
S315000002A029462046FFF7B6FF87F31188F8BDFFF70A
S315000002B07BFFEEE74808002010B504468268531C11
S315000002C04068834205D820688154A360E3680133FF
S315000002D0E360A26863689A4200D010BD2168206975
S315000002E0FFF7CEFFA368984203D04FF0FF33E360D9
S315000002F0F3E70023A360F0E72DE9F84F81460F46A8
S3150000030015461E46DDF828A00B9A0B464FF001084D
S3150000031003E0B3FBF5F308F10108AB42F9D2B045AF
S3150000032000D2B04612F0010B18D1BAF1000F15D069
S3150000033012F0020F02D0BEB1202400E02024BAF150
S31500000340000F0BD0C24509D90AF1FF3A21464846AB
S31500000350FFF7B2FFD9F80C30002BF0DAD9F80C30E1
S31500000360002B25DB012404E03024E8E7013E05FBF1
S3150000037004F4012EFAD8B7FBF4F39D42F7D900E056
S315000003801C46B7FBF4F304FB1377124AD1564846D2
S31500000390FFF792FFD9F80C30002B03DBB4FBF5F323
S315000003A0AC42EDD2BBF1000F02D0BAF1000F01D181
S315000003B0BDE8F88FBAF1000FFAD0C245F8D90AF1B4
S315000003C0FF3A20214846FFF777FFD9F80C30002B7B
S315000003D0F0DAEDE7802A00002DE9F04782B0074603
S315000003E08846154699460A9EDDF82CA081EAE17CEE
S315000003F0ACEBE17C012402E09CFBF5FC0134654595
S31500000400FADD4C4500D24C4636B1B8F1000F02DB9E
S315000004101AF0040F00D0013E1AF0020F02D0B9F113
S31500000420000F03D01AF0010F00D1AEB9FB68002B04
S315000004300FDBB8F1000F1CDB1AF0040F20D1FB68AC
S31500000440002B06DB0AF00303022B1ED0FB68002BF1
S315000004502DDA02B0BDE8F087002EE7D0A642E5D936
S31500000460013E20213846FFF727FFFB68002BF3DA11
S31500000470DCE7C8F100082D213846FFF71DFFDEE74F
S315000004802B213846FFF718FFD9E7B9F1000FDDD168
S31500000490002EDBD0002ED9D0A642D7D9013E30217E
S315000004A03846FFF709FFFB68002BF3DACEE7CDF8F5
S315000004B004A000964B462A4641463846FFF71CFFE5
S315000004C0C7E700002DE9F04399B006460C461546ED
S315000004D003AB13934023149300231593179016939D
S315000004E0A2E00020012211E040F0010001340CE0FE
S315000004F040F00200013408E040F00400013404E05A
S3150000050040F00800013400E000221AB394F90030EC
S31500000510233B0D2BF8D801A151F823F0010500006B
S31500000520090500000905000009050000090500008D
S31500000530090500000905000009050000F90400008E
S3150000054009050000E904000009050000090500008E
S31500000550F104000094F90030A3F13001C9B2092971
S3150000056007D8013402EB820203EB4203A3F1300207
S31500000570F0E72E2B04D00027B84694F9003025E08A
S3150000058004F1010C94F901302A2B07D102342B68AF
S31500000590191D29601F684FF00108EEE70027B846CD
S315000005A09CF90030A3F13001C9B209290AD80CF12F
S315000005B0010C07EB870703EB4703A3F130074FF066
S315000005C00108EDE76446D8E714F9013F6C2BFBD030
S315000005D0682BF9D0252B00F0818021DB782B1FDCDE
S315000005E0582B1DDB583B202B1AD8DFE803F04019A7
S315000005F0191919191919191919112819191919195E
S315000006001919191919196A19194C193419194000A7
S315000006102B681A1D2A6093F9001013A8FFF74CFEE9
S315000006200134169B002B5EDB14F9011B00295AD0FE
S3150000063025293FF456AF13A8FFF73EFEF1E72B68D6
S31500000640191D29601968019000923B460A2213A8D9
S31500000650FFF7C2FEE4E72B68191D296019680190AF
S3150000066000923B460A2213A8FFF746FED8E72B68FE
S31500000670191D29601968019000923B46102213A8A3
S31500000680FFF73AFECCE72B681A1D2A60D3F80090D4
S31500000690B9F1000F0BD1DFF874904FF0000806E0B7
S315000006A013A8FFF709FE013F169B002BB8DB19F9CB
S315000006B0011B0029B4D0B8F1000FF1D0002FEFD103
S315000006C0AEE72B681A1D2A601968002301930823D8
S315000006D00093102213A8FFF70FFEA1E7252113A808
S315000006E0FFF7EAFD9CE7169B002B05DD159A3AB944
S315000006F0169B159A13441693169819B0BDE8F08305
S3150000070003A93046FFF7BCFDF2E700BF2029000031
S315000007100EB400B582B003AB53F8041B019301AAD3
S31500000720FFF7D0FE02B05DF804EB03B0704700009F
S3150000073038B500F057F918B900F06EF9002314E047
S315000007400446274D024629460020FFF7E1FF00BE7A
S3150000075000F062F9224629460020FFF7D9FF00BEC5
S31500000760ECE7204AAA21D15401330F2BF9D91022E4
S315000007701C49AA2000F07EF9024608B9002309E0C8
S3150000078017490020FFF7C4FF00BEF7E7154ABB2153
S31500000790D15401330F2BF9D910221249AA2000F0A7
S315000007A069F9024608B9002309E00D490020FFF760
S315000007B0AFFF00BEF7E70B4ACC21D15401330F2B14
S315000007C0F9D910220749AA2000F054F9024600B9C7
S315000007D038BD03490020FFF79BFF00BEF8E700BFC6
S315000007E028290000F408002008B5FFF7A1FF00F053
S315000007F073F860B900F08AF8024678B900F0B4F8E8
S31500000800024688B900F0CAF8024698B908BD024601
S315000008100B490020FFF77CFF00BEEBE708490020EC
S31500000820FFF776FF00BEE9E705490020FFF770FFF6
S3150000083000BEE7E702490020FFF76AFF00BEE5E7D2
S315000008402829000008B512490020FFF761FFFFF7CD
S31500000850CBFF1049104800F08BFE48B102460F4905
S315000008600020FFF755FF00BE02E00D4B00221A7074
S315000008700B4B1B78002BFBD0074800F00BFF002822
S31500000880F3D0084B084A09490020FFF741FFECE77F
S3150000089048290000882B0000340A0020282900007F
S315000008A0F008002054290000902A0000802900004A
S315000008B0014B01221A707047F0080020022800D070
S315000008C0704708B50249034800F0DAFF08BD00BFCB
S315000008D0C02B00001C09002010B50749074801F08D
S315000008E005F8044608B9204610BD054B054A0649D9
S315000008F00020FFF70DFFF6E7102B0000240900206B
S315000009009C290000AC2A00008029000010B5074889
S3150000091001F032F8044608B9204610BD044B054ADA
S3150000092005490020FFF7F4FEF6E700BF2409002082
S31500000930542900009C2A00008029000008B5094AB5
S3150000094013780133DBB213701378DBB2012B05D0B9
S31500000950022B06D1034B00221A7002E0AA2000F0F7
S31500000960ADF808BD0409002010B50749074800F096
S31500000970BDFF044608B9204610BD054B054A064989
S315000009800020FFF7C5FEF6E7282B000034090020FB
S315000009909C290000C82A00008029000010B50748DD
S315000009A000F0EAFF044608B9204610BD044B054A8C
S315000009B005490020FFF7ACFEF6E700BF340900202A
S315000009C054290000B82A000080290000034B0122A8
S315000009D01A700278024B1A70704700BF190900207E
S315000009E01809002010B50749074800F059FB0446CE
S315000009F008B9204610BD054B054A06490020FFF7F9
S31500000A0087FEF6E7402B00004C090020C8290000AD
S31500000A10002B00008029000010B586B000238DF859
S31500000A2017300DF117010E4800F07CFA40B901A904
S31500000A300B4800F0CEF8044650B9204606B010BD6B
S31500000A400446084B084A09490020FFF761FEF4E70F
S31500000A50074B054A05490020FFF75AFEEDE700BFA0
S31500000A604C090020F0290000E82A00008029000037
S31500000A701C2A000010B513460A4601460A4800F033
S31500000A80B1FB044640B9094B1B78002BFBD0074B42
S31500000A9000221A70204610BD054B064A0649002062
S31500000AA0FFF736FEF6E700BF4C09002019090020C3
S31500000AB0482A0000D42A00008029000010B582B020
S31500000AC0014601AB6A46064800F013F80446019A4F
S31500000AD00099044801F011FF204602B010BD00BF86
S31500000AE04C0900200809002008B5FFF7ABFE0020DE
S31500000AF008BD10B48469646934F8111049B1C4683A
S31500000B006018615A19600430106000205DF8044BCB
S31500000B1070472220FAE710B582B004460A46D0F89C
S31500000B209430BBB193E803000DF1080C0CE9030007
S31500000B3092E8030083E80300D4F890201846904713
S31500000B40D4F8943023B102AA12E9030083E8030023
S31500000B5002B010BD0B46EFE741B1436813B14368DD
S31500000B60022B03D1042343600123836070470246AE
S31500000B7006E0002353674B69506F33F810303BB9DA
S31500000B80536F01335367916908698342F3D9F0E7DC
S31500000B90704738B50A238360036C01330364D0F8C9
S31500000BA08440A3685D680823C26800F1400120689C
S31500000BB0A84738BD436843B98368012B02D0012397
S31500000BC00B7004E000230B7001E043680B700020FB
S31500000BD0704738B505460C46FFF7ECFFEB6D6360D2
S31500000BE0237813B9EB681B68E3606B692A699B1A63
S31500000BF0A36038BDF0B583B005461E460023837753
S31500000C00D0F884008368DC680DF107030068A0470C
S31500000C10074608BB0446134A944207D8AA7F2AB956
S31500000C200121084601F07CFC0134F4E795F85830C0
S31500000C3033700D4B9C4212D095F85830DBB2022B24
S31500000C400AD095F85830DBB2032B05D095F858300A
S31500000C5085F859304FF4FA77384603B0F0BD1427BB
S31500000C60FAE700BF3F420F0040420F0070B582B066
S31500000C7005460E4602238DF80730C36803F10804C3
S31500000C80D0F888201344436100212BE00DF10703BF
S31500000C90042221462846FFF7ADFF014670BB9DF8AA
S31500000CA00730022B28D0D5F88830A869C2680A32E6
S31500000CB0A3EB420223889A421DD32344073323F031
S31500000CC00303B3F802C04BF6AD62944519D1EA6846
S31500000CD04069B3F800C0A21A20F81C201C4634F85C
S31500000CE0043BEB656B69A34206D9002ECED1AB6EF1
S31500000CF0A342D8D100E02121AC662C61084602B09F
S31500000D0070BD2121F8E7000070B505460023837702
S31500000D10D0F88430986884681868A047064690B969
S31500000D20044604E00121084601F0FAFB01340B4BAE
S31500000D309C4202D8AB7F002BF4D0094B9C420BD0CF
S31500000D4095F858300BB9304670BD95F8583085F88F
S31500000D5059304FF4FA76F6E71426F4E73F420F00CF
S31500000D6040420F000AB12120704708B5D0F888200C
S31500000D709209FFF7C9FF08BD70B505460020A877A0
S31500000D80D5F88400846864680068A0470646C8B938
S31500000D9004460E4B9C4207D8AB7F2BB9012108466F
S31500000DA001F0BEFB0134F4E7094B9C420CD095F8E8
S31500000DB05830DBB2012B05D095F8583085F85930FC
S31500000DC04FF4FA76304670BD1426FBE73F420F001B
S31500000DD040420F002DE9F04182B004460023C36073
S31500000DE01E4628E00DF10703D4F888203946204630
S31500000DF0FFF700FF034600284CD19DF80720032A81
S31500000E0017D1002239462046FFF7ACFF034610E013
S31500000E10D4F88820920939462046FFF775FF034625
S31500000E2007E0E76005E0002239462046FFF79AFF13
S31500000E3003467BBB0136A2695168B1422AD9D2F872
S31500000E400080D4F8885006FB05F508EB05070DF180
S31500000E500703082239462046FFF7CCFE0346C8B9E9
S31500000E609DF80720022ABDD0F9884BF6AD62914263
S31500000E70D9D1E1680029D4D058F805200B689A42E8
S31500000E80C6D9D4F8882092092046FFF73DFF0346CD
S31500000E90E760CEE7E26842B9A1690A688868024459
S31500000EA0D4F88800121AE2601BB1184602B0BDE8F9
S31500000EB0F08123644BF6AD63A4F846300A688B686C
S31500000EC01A440823121A04F140012046FFF754FF82
S31500000ED00346EAE738B5044683691A6901325200C7
S31500000EE00021586901F001FD0023A3774FF6FF7337
S31500000EF0E3652046FFF76EFF21280FD068B900256D
S31500000F0000232377637701212046FFF7AFFE2128D0
S31500000F1003D010B925B90123A36038BD0125EFE739
S31500000F202120FAE738B504460023836083699A686E
S31500000F3092091968FFF7E8FE054628B129462046BA
S31500000F40FFF70AFE284638BD2046FFF7C3FF0546D1
S31500000F50F4E710B50446436EC36083691A6901322B
S31500000F6052000021586901F0C0FC00212046FFF71D
S31500000F707DFE10BD38B50446406EA269536933F84C
S31500000F801130C518E567C35A0B3323F00303C4F8C1
S31500000F9080302369E06852691B1A22F811302369F0
S31500000FA0D4F880201A44E368D4F888100B449A4297
S31500000FB001D8002038BD2046FFF7CBFF032363602E
S31500000FC00123A360F6E7F8B54368032B23D0044654
S31500000FD00E46D0F880501F2D00D9202504F11F079A
S31500000FE02A46E16F384601F088FCA660D4F88400F2
S31500000FF083685E682B46226939460068B0472369D4
S315000010002B442361E36F2B44E367D4F880305B1BEA
S31500001010C4F88030F8BD0020FCE7F8B504460D465C
S315000010209C4602234360016699420AD00021A069CA
S3150000103003698B4206D3406930F8110010B90131BB
S31500001040F5E71146E268D4F8886002EB060EA76958
S315000010503868BB680344734500D070466266E0603A
S31500001060064466613B698B4215D3083020618BB21A
S3150000107023676367022D08D02046FFF77BFF68B918
S3150000108006212046FFF79FFF08E0069B62462046A2
S3150000109000F07EF802E02046FFF77BFDF8BD000079
S315000010A070B582B0044681610B6A1A68C0F8842064
S315000010B08B684868B3FBF0F3C4F888300023A4F8C3
S315000010C04830A4F84A30E3642364A4F844304BF66D
S315000010D0AD60A4F846004FF6FF75A4F85050A4F88A
S315000010E05200A4F85430A4F856008869C4F8900059
S315000010F0C969C4F89810C4F8943093681B6851689D
S3150000110010689847054610B1284602B070BD002306
S31500001110A3602046FFF7DEFE0546212807D045B32B
S31500001120D4F884309A68526918689047ECE7002131
S3150000113000910B460A462046FFF76FFF054600283A
S31500001140EED1064604E00121084601F0E9F9013630
S315000011500C4B9E4202D8A368012BF4D10A4B9E4247
S3150000116005D06368042BDAD14FF4FA75D8E7142555
S31500001170D6E7E3681B68236400236360034B2360A0
S31500001180C2E700BF3F4B4C00404B4C004545565212
S3150000119030B583B01446026902EB030C0CF10B0C5C
S315000011A02CF0030C4569AC4515D8A0F85010A0F8F2
S315000011B04830C368D31AA0F84A3002238360C46457
S315000011C0D0F88440A3685D68042300F148012068D4
S315000011D0A84703B030BD009323460A460221FFF715
S315000011E01CFFF6E738B50546FFF7D2FF0446014671
S315000011F02846FFF7B1FC204638BD10B50446FFF778
S31500001200B6FC236F834209D001462046FFF7B2FEA3
S3150000121048B906212046FFF7D6FE04E02369A367F6
S315000012202046FFF7B6FC10BD70B582B0037884681F
S3150000123084F85830A368B3B194F85830DBB2012B68
S3150000124014D094F85830002B40F0BD800021616026
S315000012500123A3602046FFF77FFCA368012B00F063
S31500001260CB8002B070BD0123A377FAE7A368023BE7
S31500001270082B00F2BF80DFE803F00551326B83BD17
S31500001280BDBD9100256904352561E66C3146B4F88B
S31500001290480003460322A26002400AD10322A2604C
S315000012A0D4F88400826856682A460068B04701462A
S315000012B0D0E7032804D920F003030422A260EFE755
S315000012C004F18C030021C4F88C1031461E461846E2
S315000012D001F013FB0323A36031460423E0E7B4F8CF
S315000012E0482022F003060323A36004F18C050023A3
S315000012F0C4F88C30E16C02F003023144284601F058
S31500001300FCFA226932442261D4F8840083685E685C
S31500001310042329460068B04701469BE7B4F84830E5
S3150000132013F0030F10D02369043323610523A36050
S31500001330D4F8840083685D680423226904F15001AF
S315000013400068A847014685E722691A442261EDE74D
S31500001350B4F85020E265236904332361A3695B690D
S31500001360B4F84A1023F81210616821B90123A3606A
S315000013702369A3666EE72046FFF73FFF014669E74C
S31500001380D4F880302BB106212046FFF71CFE01461B
S3150000139060E72046FFF731FF01465BE7E368D4F8D4
S315000013A088201344636100232377A36F23610B23F3
S315000013B0A360D4F8843099688D689209616E1868C4
S315000013C0A847014646E76368022B09D0002194F836
S315000013D0583084F85930042363600123A36039E749
S315000013E0A3680B2B01D10021F1E72046FFF7B1FDE1
S315000013F00146ECE700212DE7D4F89030002B3FF4AE
S3150000140030AF69462046FFF7D5FBD4F898300193F4
S3150000141069462046FFF77FFB23E70000C0B9114A63
S3150000142092F83820D2B2012A14D10E4A92F832200C
S31500001430D2B2012A10D10B4A92F82A20D2B2012A3E
S315000014400CD1084A92F84A20D2B2012A08D1704734
S315000014500520704705207047052070470520704716
S315000014600520704700E00140034B93F8AA3013F0C3
S31500001470100FF9D1704700BF00E0014038B50446AF
S31500001480012001F06BF9FFF7EFFF2378002B67D0FF
S31500001490042B1DD000232278032A41D00020627F2E
S315000014A0920342F400423049A568C1F8A051E468AD
S315000014B0C1F8A44192B22D498A81C2B281F8922024
S315000014C0DBB281F80034012001F014F9002038BDA8
S315000014D094F82020254B83F8022494F8212083F8E1
S315000014E0032494F8222083F8042494F8232083F814
S315000014F0052494F8282083F80A2494F8292083F8F0
S315000015000B2494F82A2083F80C24E27F02F00302CD
S3150000151042F08002A37F9B0103F040031343BAE726
S31500001520256962692A4319D000221049C1F89850EA
S315000015306069C1F88800207F42EA4000658B0A4A4C
S31500001540B2F800C265F3080CA2F800C2227E81F848
S315000015509420228B120A81F89520A0E70122E4E765
S3150000156000231A461846A5E70060004000E0014047
S3150000157010B5044608466160FFF780FF30B900F1F8
S31500001580A643A3F1B313A3F52F43236010BD0000B8
S31500001590F8B504463E4B9B8913F4004F16D100253F
S315000015A02E462F4663681B78032B55D0BFF34F8F0B
S315000015B030BF374A92F8923023F0800382F8923097
S315000015C0938913F4004F51D10020F8BD304B93F8A6
S315000015D02600C0B293F8A07007F0030793F8AA603C
S315000015E006F0010693F80034DB0919D1284B93F86D
S315000015F0923013F0010F0DD1002001F0AFF8244A0C
S3150000160092F84030DD0992F8403003F07F0382F80B
S315000016104030C7E7FFF702FF0028EDD00520D4E7EA
S31500001620002001F09BF81A4B93F80E2422F00102D9
S3150000163083F80E2493F80624002283F8062493F8F0
S31500001640071483F8072493F8081483F8082493F8FA
S31500001650091483F80924D2E70D4B93F8922042F03F
S31500001660800283F8922093F892309FE7FFF7FCFE02
S31500001670074A82F8A07082F8AA6092F840302B439D
S3150000168082F84030002001F035F800209DE700BFC9
S3150000169000E0014010B50446FFF7E6FE012001F028
S315000016A05DF82046FFF774FF0446012001F022F89A
S315000016B0204610BDEFF31081012383F31088074BFA
S315000016C01B6823B9064B0022DA704022DA70034AFF
S315000016D013680133136081F3108870477C0A002079
S315000016E0000D0840EFF31083012282F31088094AA7
S315000016F012681AB107490A68013A0A60054A12686F
S3150000170022B9054A0021D1708021D17083F3108857
S31500001710704700BF7C0A0020000D084010B411F489
S31500001720803F0ED0030A0C4A1B0153FA80F352F88D
S31500001730234024F4803442F8234021F4803442F8D4
S315000017402340030A1B0153FA80F0034B43F8201091
S315000017505DF8044B704700BF00080840F8B5064620
S31500001760002569E0374B93F8BB240123A340DFB281
S31500001770134238D004F12003334A12F81330DB0940
S315000017803ED00134022C56D8736803EBC50291880B
S315000017902E4A32F814209142F3D153F8353003F033
S315000017A0F853B3F1807FDDD0B3F1106FDAD0254B5B
S315000017B093F8BB240123A340DFB213422DD104F1D9
S315000017C02003214A12F81330DB09DAD004F1200194
S315000017D012F8113023F0800302F811300121C820DD
S315000017E000F09EFECDE7012000F0B8FF154A92F802
S315000017F0BB343B4382F8BB34012000F07BFFB9E7E2
S3150000180004F1200112F8113043F0800302F8113080
S315000018100121C82000F084FEB3E7012000F09EFFFE
S31500001820084A92F8BB3423EA070382F8BB34012046
S3150000183000F060FFC3E701353388AB4201D90024CD
S31500001840A0E7F8BD00E00140003008406C2E000023
S3150000185038B50546FFF782FFFFF72CFF002409E0A5
S315000018606B6803EBC40253F834109088FFF756FFF9
S315000018700134A4B22B88A342F2D8FFF733FF38BD58
S3150000188008B5034B03600846FFF7E2FF002008BDDA
S3150000189054524F500B4B00F1C00253F8221021F462
S315000018A0803143F8221053F82230BFF35F8F00F0E7
S315000018B01F024009012393406030034A42F820305A
S315000018C0704700BF0060004000E100E010B504462C
S315000018D0FFF7E0FF04F01F02640901239340024A68
S315000018E042F8243010BD00BF00E100E030B591F9A8
S315000018F0023003711D4AC03352F82340002542F8D6
S3150000190023508B688360CB68C36091F800E080F851
S3150000191005E002F80E500B791B01DBB291F805C009
S315000019204FEACC1C5FFA8CFC43EA0C0391F803C027
S315000019304CEA030302F80E3090F90430C03342F843
S31500001940234090F90420AA420BDB4B781B01DBB243
S3150000195002F1604101F5614181F80033044B43F81F
S315000019602200044B0360002030BD00BF0060004031
S31500001970800A00205543490008B590F90400FFF796
S31500001980A5FF002008BD000030B583B0EFF3038447
S31500001990C4F30804103C64B2174B53F824305A7948
S315000019A016498A5C02F00302032A21D00A4604F192
S315000019B0C00152F8210020F4803042F8210052F88C
S315000019C02120BBB100259A682AB159790191DB68BB
S315000019D00093684690474DB1084BC03453F8242015
S315000019E022F4803243F8242053F8243003B030BD6B
S315000019F00125E8E70025EEE7800A002000600040A8
S31500001A000B4B00F1C00253F8221021F4803143F849
S31500001A10221053F82230BFF35F8F00F01F024009F7
S31500001A20012393406030034A42F82030704700BFDC
S31500001A300060004000E100E010B50446FFF7E0FF5B
S31500001A4004F01F02640901239340024A42F824303D
S31500001A5010BD00BF00E100E0054BB3F8843003F091
S31500001A60810313B90B700020704701230B70FAE74E
S31500001A7000E07F400620704706207047062070472A
S31500001A8006207047062070470B46064A92E8030078
S31500001A9083E80300044A083392E8030083E803005E
S31500001AA000207047D82E0000C02E000000230360DF
S31500001AB0436893F91130002B0CDB03F01F015B091F
S31500001AC001228A402033104941F82320BFF34F8F6B
S31500001AD0BFF36F8F0D4B00221A76436893F91330CC
S31500001AE093420CDB03F01F015B0901228A4020337D
S31500001AF0054941F82320BFF34F8FBFF36F8F0020B6
S31500001B00024B1875704700BF00E100E000E07F401F
S31500001B1001648264436400207047062070470620F3
S31500001B2070470620704706207047000030B482B028
S31500001B3014467AB9436893F9113003F01F055B091F
S31500001B400122AA4020332A4D45F82320BFF34F8FA8
S31500001B50BFF36F8F426B274B1A63A3F5F033E8226E
S31500001B601A704FEA510CC1F3470119700021614503
S31500001B701FD2036B1A88204B1A80036901931D4BF1
S31500001B80D3F8803013F4806F08D0019B5A1E01925F
S31500001B90002BF4D1142002B030BC7047036B023323
S31500001BA00363436B02334363836B013B83630131FE
S31500001BB0DDE7114BD0221A7064B9436893F91130EE
S31500001BC003F01F015B0901228A40094941F82320DD
S31500001BD02046E0E7074BD3F8803013F4004F04D1DA
S31500001BE00CB1013CF6E71420D5E70020D3E700BF8F
S31500001BF000E100E000E07F4000007E4010B40023DA
S31500001C0080F83C30354C226AC2F30271C2F302629C
S31500001C10334B1B6803FA02F2CA40216AC1F3026120
S31500001C208B40CB40012184F816142E498A4252D9A2
S31500001C3002F5742202F23F222B49A1FB0242920CCA
S31500001C4003F5742303F23F23A1FB03139B0C02F558
S31500001C50F0522649A1F8E42043F6B85103FB01F1FE
S31500001C60234AA2FB01418908816040F6D86103FB43
S31500001C7001F1A2FB01418908C1605900A2FB0141A3
S31500001C8089080161542103FB01F1A2FB0141890886
S31500001C9041614FF4FA2103FB01F1A2FB01418908DE
S31500001CA0816144F2506103FB01F1A2FB0141890805
S31500001CB04162104903FB01F1A2FB0141890801625F
S31500001CC00D4901FB03F3A2FB03239B08C36100201C
S31500001CD05DF8044B70474FF4FB70F9E700E00140F4
S31500001CE09C0A0020FF083D0083DE1B4300E07F4086
S31500001CF0ABAAAAAA80DE0F00A0F703002DE9F041E7
S31500001D00044641600B785BB91A4B00221A761A75A5
S31500001D102046FFF773FF08B9174B2360BDE8F08133
S31500001D200D464B680364CB68836400234364DFF885
S31500001D304480012388F8183091F911000B7C1B01AF
S31500001D40DBB20E4E321882F800330D4F47F82040B2
S31500001D50FFF772FE982388F8143095F91300AB7CD0
S31500001D601B01DBB2064486F8003347F82040FFF734
S31500001D7063FECDE700E07F404E45504F00E100E0B6
S31500001D80800A002008B5FFF739FF08BD10B4124BD2
S31500001D90046B1C63A3F5F0334FF0200C83F800C0EE
S31500001DA04FF0D00C83F800C0036B0B440363836BC6
S31500001DB0013B836310461AB95DF8044B704701383E
S31500001DC0054BD3F8803013F4004F03D10028F6D129
S31500001DD01420F1E70020EFE700E07F401D4BB3F849
S31500001DE0841089B24FF42A42A3F884204FF4964215
S31500001DF0002000E0013A174BB3F884309BB223B1C0
S31500001E00002AF7D14FF4FA70F4E7012902D08029AD
S31500001E1018D070470F4B4DF60112A3F844200E4B15
S31500001E200122A3F804210C4BB3F804319BB2002B1A
S31500001E30F9D10123084AA2F80031A2F5A83293602D
S31500001E4013607047054B01225A60044B5B68002BF8
S31500001E50FBD1DEE700E07F4000C00140007000409B
S31500001E6082B04FF4964301930E4BB3221A7002E0F0
S31500001E70019B013B01930C4BD3F8803013F4004FC8
S31500001E8005D1019B002BF3D1142002B07047064BFD
S31500001E901B7C13F0100F01D10020F6E740F2F5107D
S31500001EA0F3E700BF00007E4000E07F4010B5034628
S31500001EB01446134A127C12F0100F0CD10020104A5F
S31500001EC0D2F880200A4200D10446A3B9ACB1FFF78C
S31500001ED0C7FF204610BD0A4AD2F8802012F4804F70
S31500001EE002D140F2F510EAE7054A107C0020107492
S31500001EF040F2F510E3E71C46E9E72046EAE700BFB3
S31500001F0000E07F4082B04FF4964301930E4B50227F
S31500001F101A7002E0019B013B01930C4BD3F8803011
S31500001F2013F4004F05D1019B002BF3D1142002B00E
S31500001F307047064B1B7C13F0100F01D10020F6E70B
S31500001F4040F2F510F3E700BF00007E4000E07F405E
S31500001F5010B584B004468C46436CBBB193E80700C9
S31500001F600DF1100E0EE9070083F800C000225A603A
S31500001F70A26C9A60226C18469047636C23B104AA3F
S31500001F8012E9070083E8070004B010BD01ABEBE7D8
S31500001F9010B582B04FF49643019343681A782AB974
S31500001FA0114B4AF68022A3F884200DE0044693F9EB
S31500001FB01100FFF741FD636893F91300FFF73CFD3D
S31500001FC0EEE7019B013B0193074BB3F884309BB2CC
S31500001FD0802B05D0019B002BF3D14FF4FA7000E063
S31500001FE0002002B010BD00BF00E07F4070B505467E
S31500001FF0FFF7CEFFE0B96B681B78D3B1012385F8F4
S315000020003C300646324604212846FFF78FFD6B68B2
S315000020101B786BB918224FF48051FFF747FF04462F
S31500002020AB6B0BB10028EDD0FFF7D8FE04B120460C
S3150000203070BDEE68E6E708B55B088363016342633B
S31500002040002380F83C30FFF7D1FF08BD70B5054688
S3150000205001638263FFF79CFF18BB06466B681B781B
S31500002060EBB1022385F83C300F4B0122A3F8E020A8
S31500002070324640212846FFF789FE6B681B786BB90C
S3150000208019224FF40051FFF711FF0446AB6B0BB159
S315000020900028EDD0FFF7A2FE04B1204670BD6E6A9F
S315000020A0E2E74FF4FA70F9E700E07F4008B54FF039
S315000020B0000C80F83CC021F03F01FFF7C7FF08BDC8
S315000020C0F8B507460C4616461D46FFF761FFD0B920
S315000020D01D4B002283F8D0201C633444013C5C6312
S315000020E0A3F5F03371221A70D0221A707B681B7820
S315000020F023B97969B60806FB011606E0032387F8BB
S315000021003C3002232B70F8BD013E0F49D1F88010F8
S3150000211011F4004F02D1002EF6D114204FF4FC72B8
S315000021200021FFF7C3FE0446074B93F8D430DBB219
S31500002130012B07D000232B70FFF750FE002CE2D0B6
S315000021402046E0E72B70F7E700E07F4008B5FFF791
S31500002150B7FF08BD70B5044643681A78EAB193F92B
S31500002160113003F01F015B09012202FA01F1174841
S31500002170203340F82310BFF34F8FBFF36F8F636890
S3150000218093F9133003F01F015B098A40203340F8AE
S315000021902320BFF34F8FBFF36F8F0D4BB3F88430FF
S315000021A09BB27BB1FFF75CFE0646FFF7ABFE05462A
S315000021B006B13546FFF712FE05B12846002384F81E
S315000021C03C3070BD2046FFF7E3FEEBE700E100E0A0
S315000021D000E07F4008B5FFF7BDFF08BD70B5EFF31F
S315000021E00383C3F30803103B5CB2184B53F8245027
S315000021F0174A137CD2F8802013F0080F0BD1D9B2FE
S3150000220011F0800F1BD111F0100F1AD012F4405F9D
S3150000221019D0072600E004262846FFF79BFF0D4A43
S3150000222004F1C00352F8231021F4803142F8231040
S3150000223052F8233031462846FFF78AFE70BD052640
S31500002240EAE70726E8E70626E6E700BF800A002059
S3150000225000E07F400060004038B5EFF30383C3F32E
S315000022600803103B5BB21F4A52F823401E4AC03394
S3150000227052F8231021F4803142F8231052F823300B
S3150000228094F83C50012D12D0022D1ED0174B93F816
S31500002290D430DBB2012B22D00225FFF79FFD0023AD
S315000022A084F83C3029462046FFF752FE38BDA36B22
S315000022B0002BF2D0002204212046FFF737FC00282D
S315000022C0F4D02046FFF746FFF0E7A36B0BB90025D5
S315000022D0E3E7002240212046FFF758FDE6E7032505
S315000022E0DBE700BF800A00200060004000E07F407E
S315000022F0064B93F826101A6AC2F30262044B53F88F
S315000023002130D340034A1360704700BF00E001400C
S31500002310000400209C0A002008B5084B084A1A60F1
S31500002320084A5A604FF400429A600749D9601A6118
S31500002330064A5A61FFF7DCFF08BD00BF0004002013
S31500002340002D310100127A0000366E0100C2EB0B3F
S3150000235008B50A4B032283F81C2103F50053084AEB
S315000023601A62052283F82620FFF7C2FF054BF122E9
S315000023701A7301221A72F0221A7308BD00C00140B6
S3150000238021120120002000407047000008B5144BC0
S3150000239093F880342BB9124B93F8813413F0030F62
S315000023A018D00F4B93F8803433B10D4B002283F8CD
S315000023B0812483F8802408BD0121094B83F8801409
S315000023C0C82000F0ADF8064B93F88034DBB2012B41
S315000023D0F9D1EAE74FF47A70FFF7D6FFEBE700BFD3
S315000023E000E0014038B5224B4AF20352A3F8FE231F
S315000023F0A3F500530122A3F804211E4BB3F80431C0
S315000024009BB2002BF9D101231A4AA2F80031A2F59A
S31500002410A83293601360FFF77FFF154C002584F800
S315000024201354092384F8A230FFF7B0FF84F8325022
S315000024300F4B93F83C3013F0080FF9D00C4B43F2D6
S3150000244002121A85002283F82A20094B93F83C30A1
S3150000245013F0200FF9D0FFF77BFF054B012283F81D
S31500002460302083F852204FF42542A3F8FE2338BDCE
S3150000247000E0014000C0014038B5244C002584F836
S3150000248028500121C82000F04BF884F824501F4B37
S3150000249093F82430002BFAD11C4A92F8243043F0EA
S315000024A0020382F82430194B93F8243013F0020FFC
S315000024B0F9D1164B002283F82220144B93F82230D0
S315000024C003F0FF01002BF8D112E008460F4A01F194
S315000024D0200C12F81C3023F0800302F81C3000F1A7
S315000024E020030A4A12F81330DB09F8D10131C9B2C8
S315000024F00229EAD9012000F031F9054B002283F8C0
S31500002500BB24012000F0F6F838BD00BF00300840BB
S3150000251000E00140A0F101000028FBD17047000057
S3150000252008B500FB01F12F4B1B682F4A934219D3C4
S3150000253003F5741303F6FF0302F1854202F5071251
S3150000254002F68342A2FB03231B0DA1FB03014FF0FE
S31500002550FF3383424FF000038B413FD308B1FFF7AF
S31500002560D9FF08BD2148B0FBF3F0CA0E4B015B1A38
S3150000257062F10002920042EA93729B005B1842F1FC
S315000025800002D20042EA5372DB004FF0FF3C9C454A
S315000025904FF0000C7CEB020C03D3B3FBF0F398086E
S315000025A0DCE78000B1FBF0F1CA0E4B015B1A62F169
S315000025B00002920042EA93729B005B1842F100020D
S315000025C0D20042EA5372D8004FF0FF3383424FF0F5
S315000025D000039341C2D24FF0FF30C0E74FF0FF3007
S315000025E0BDE700BF9C0A002000127A0000CA9A3B91
S315000025F008B5034B53F8203003B1984708BD00BF18
S315000026003C0A002038B50D4BB3F82021B3F84051F1
S31500002610ADB21540002401E00134E4B20F2C08D815
S3150000262025FA04F313F0010FF6D02046FFF7E0FF7A
S31500002630F2E7024BA3F8305138BD00BF00600040FE
S3150000264000B585B0032000F089F8254B6FF0FF0236
S315000026509A644FF0FF33019302930393002300E043
S315000026600133032B14D81F4A32F81320002AF7D05F
S315000026705A0903F01F0C04A901EB820252F80C1C44
S31500002680012000FA0CF021EA000142F80C1CE7E7F1
S3150000269000230DE004AA02EB830252F80C2C124927
S315000026A041F8232003F1A000104941F8202001330E
S315000026B0022BEFD9032000F01DF8002300E00133C0
S315000026C0032B0AD8074A32F81320002AF7D003F161
S315000026D0C001074840F82120F1E705B05DF804FB8A
S315000026E000800040642E00007080004000E100E0A1
S315000026F000600040EFF31082012383F31088144B2F
S3150000270033F810309BB23BB1114931F810309BB20F
S31500002710013B9BB221F810300D4B33F810309BB2C1
S3150000272093B910B40B49B1F8FE339BB20A4C34F896
S31500002730100043F4254323EA0003A1F8FE3382F395
S3150000274010885DF8044B704782F31088704700BF0D
S31500002750900A002000E00140D82F000010B4EFF3EB
S315000027601081012383F310880F4B33F810309BB28E
S3150000277063B90E4AB2F8FE339BB20D4C34F810C062
S3150000278043EA0C0343F42543A2F8FE33064A32F823
S3150000279010309BB201339BB222F8103081F31088BF
S315000027A05DF8044B704700BF900A002000E001402E
S315000027B0D82F000000BE704708B500F037F8FEF7C6
S315000027C093F9FEE738B50546002400E00134164BC0
S315000027D01B68A34210D9144B5A6804EB44039800B3
S315000027E002EB8303597AA942F0D110585A68121A9B
S315000027F0002100F07AF8E9E7002400E001340A4BF2
S315000028009B68A3420ED9084BDA68200102EB041339
S31500002810597BA942F2D110585A68121A996800F0E9
S315000028206CF8EBE738BD00BF002F000038B5274B2A
S315000028304FF47002C3F88820254A9A600020FEF7FC
S315000028403DF8FFF7CFFD0120FEF738F8214B83F363
S315000028500A880020FFF7B6FFFFF74AFDFFF70CFED8
S315000028600320FFF77BFF002307E003F108011A4A64
S315000028704FF6FF7022F811000133082BF5D903201B
S31500002880FFF738FF0320FFF769FF144B00245C6055
S315000028909C60DC601C610320FFF72CFF0220FEF722
S315000028A00DF80120FFF78EFF0D4D0E4BED1AAD1002
S315000028B004E00C4B53F8243098470134AC42F8DB63
S315000028C0FFF7BEFE002000F00FF838BD00ED00E077
S315000028D00000000000000020000D084000000E402F
S315000028E0403000003C3000007047024403469342EB
S315000028F000D1704703F8011BF9E70A44431E9142D1
S3150000290000D1704710B511F8014B914203F8014F01
S31500002910F9D110BD5465726D696E616C00000000DE
S31500002920284E554C4C2900000D0A52657475726E7E
S315000029306564204572726F7220436F64653A203079
S3150000294078257820200D0A000A5374617274696E26
S31500002950670000000D0A2A2A525F4943555F4578F1
S315000029607465726E616C497271456E61626C652048
S31500002970415049204641494C45442A2A0D0A000047
S315000029805B4552525D20496E2046756E6374696FD1
S315000029906E3A20257328292C202573000D0A2A2A31
S315000029A0525F4943555F45787465726E616C497232
S315000029B0714F70656E20415049204641494C45444F
S315000029C02A2A0D0A000000000D0A2A2A20524D5F0D
S315000029D05645455F464C4153485F4F70656E2041F2
S315000029E05049204641494C4544202A2A0D0A0000F8
S315000029F00D0A2A2A20524D5F5645455F464C4153E3
S31500002A00485F466F726D61742041504920464149C6
S31500002A104C4544202A2A0D0A000000000D0A2A2AE5
S31500002A2020524D5F5645455F464C4153485F5374AF
S31500002A306174757347657420415049204641494C7D
S31500002A404544202A2A0D0A000D0A2A2A20524D5FE3
S31500002A505645455F464C4153485F4F70656E20466C
S31500002A6041494C4544202A2A0D0A00000000000076
S31500002A700000545452205245474745530000000079
S31500002A80303132333435363738394142434445469E
S31500002A9068616C5F656E7472790000006963755FCA
S31500002AA073315F656E61626C650000006963755F16
S31500002AB073315F6F70656E006963755F73325F6552
S31500002AC06E61626C650000006963755F73325F6FEB
S31500002AD070656E007665655F77726974655F6F70A5
S31500002AE065726174696F6E007665655F666F726D9B
S31500002AF061745F6F7065726174696F6E00000000CB
S31500002B007665655F666C6173685F696E69740000FF
S31500002B100A0C0201030000003D090000000000004D
S31500002B20242B0000000000000B0B03010300000033
S31500002B30B1080000000000003C2B0000000000006F
S31500002B400000000802000000002000000000000055
S31500002B500200000044090020CD090000000000002A
S31500002B60642B0000682B0000E8090020742B00008D
S31500002B70742E000001000000291200000000000071
S31500002B804C090020080008010200000000000000B7
S31500002B900008000000000000000000000000000027
S31500002BA0000000000001010000000000000000001D
S31500002BB0000000000000000000000000000000000F
S31500002BC053000000CC2B0000000000000080000035
S31500002BD0000000000080000001000000004000002E
S31500002BE00200000000800000030000000400000056
S31500002BF00400000000400000050000001040000036
S31500002C0006000000008000000700000010400000E1
S31500002C100800000004000000090000000080000019
S31500002C200E000000008000000F000000000C011CD8
S31500002C3000010000000C011C01010000000C011C39
S31500002C4002010000000C011C03010000000C011C25
S31500002C5004010000000C011C05010000000C011C11
S31500002C6006010000000C011C070100000000010025
S31500002C700801000000000100090100000000010039
S31500002C800A010000040000000B010000040000001F
S31500002C900F0100000000010602020000000001060C
S31500002CA00302000000000106040200000000010605
S31500002CB005020000000001000003000000000106FC
S31500002CC001030000040000000303000004000000EC
S31500002CD004030000000C011105030000000C0111A3
S31500002CE006030000000C011107030000000C01118F
S31500002CF008030000000C011109030000000C01117B
S31500002D000A030000040000000B030000040000009A
S31500002D100C030000040000000D0300000400000086
S31500002D2000040000000C011701040000000C01174C
S31500002D3002040000050C000003040000040000006B
S31500002D4004040000000C011705040000000C011724
S31500002D500604000000000113070400000000010340
S31500002D6008040000104000000904000000000106ED
S31500002D700A040000000001060B0400000000010622
S31500002D800C040000000001060D04000010400000C5
S31500002D900E040000040000000F04000000000113F0
S31500002DA000050000000001130105000040000104B9
S31500002DB005050000400001040605000000040107A7
S31500002DC00B050000000401070C050000000C011CA7
S31500002DD000060000000C011C01060000000C011C8E
S31500002DE002060000000C011C0A0600000400000098
S31500002DF00B060000040000000C06000000000105A0
S31500002E000D060000000001050E060000000C01176B
S31500002E1000070000000C011701070000000C011755
S31500002E2002070000000C011703070000000C011741
S31500002E3004070000000C011705070000040000004D
S31500002E400807000004000000090700000400000055
S31500002E500A070000040000000C0700000400000040
S31500002E600D070000310030000B000C0002040304C3
S31500002E7004040000FD1C000037200000AD20000007
S31500002E804D210000891A0000AD1A0000591A0000F1
S31500002E90791A00007D1A0000751A0000D52100007D
S31500002EA0851D0000811A0000851A0000111B000014
S31500002EB01B1B00001F1B0000231B0000271B00001C
S31500002EC001000000C82E000000000008FF1F0008D7
S31500002ED0400000000400000002000000E02E000098
S31500002EE000000000FFFF000000200000800000003E
S31500002EF000000100FFFF0F000080000080000000BE
S31500002F0004000000A82F000008000000282F000081
S31500002F1002000000182F0000000000680000006892
S31500002F20000000200000002000000068000000688B
S31500002F300000006000010C08000000680000006846
S31500002F400000007000010908000000680000006829
S31500002F500000000800010208000000680000006888
S31500002F6050000000000101080000002000000020C1
S31500002F700000006000010C0300000020000000209B
S31500002F80000000700001090300000020000000207E
S31500002F9000000008000002030000002000000020DE
S31500002FA050000000000001030000006800000068F7
S31500002FB00001000800000068000000680001000829
S31500002FC00000002000000020000000031C04002078
S31500002FD0A00A002000000003010002000800100003
S31500002FE0200000004275696C74207769746820526D
S31500002FF0656E6573617320416476616E63656420F6
S31500003000466C657869626C6520536F667477617289
S3150000301065205061636B6167652076657273696FC1
S315000030206E20362E342E3000362E342E3000000020
S30900003030000004068C
S30900003034F8B500BF26
S30900003038F8B500BF22
S3090000303CBD000000CD
S3090000304095000000F1
S3090100A100FFFFFFFF58
S3090100A200FFFDFFFF59
S3090100A280F8F8FFFFE5
S705000027B91A
